:020000040800F2
:10000000100E0020B90200082F38000851330008F4
:100010002D380008630800082D4400080000000087
:100020000000000000000000000000003F38000851
:1000300097090008000000003D380008413800081A
:10004000D3020008D3020008D3020008D30200083C
:10005000D3020008D3020008D30200080D0A0008EA
:100060001D0A00082D0A00083D0A0008D1080008F2
:10007000DD080008E9080008D3020008D3020008E0
:10008000D302000800000000D3020008D3020008D9
:10009000D3020008D3020008D30200084D0A00086A
:1000A000D3020008D3020008D3020008D3020008DC
:1000B000BD380008C9380008D3020008D302000880
:1000C000D3020008D3020008D3020008D3020008BC
:1000D000D3020008D3020008D30200081944000824
:1000E00099090008D3020008D3020008D3020008CF
:1000F000D3020008D3020008D30200080000000069
:1001000000000000D302000800000000D302000835
:10011000D302000800000000D3020008D302000848
:10012000D3020008D3020008D3020008D30200085B
:10013000D30200080000000000000000D302000805
:10014000D3020008D30200080000000000000000F5
:10015000000000000000000000000000000000009F
:10016000000000000000000000000000D3020008B2
:10017000D3020008000000000000000000000000A2
:1001800000000000D3020008000000000000000092
:10019000000000000000000000000000000000005F
:1001A0000000000000000000D3020008D302000895
:1001B000D3020008D3020008D302000800000000A8
:1001C00000000000D3020008000000000000000052
:1001D000D3020008D302000800F002F800F05CF837
:1001E0000AA090E8000C82448344AAF10107DA4592
:1001F00001D100F051F8AFF2090EBAE80F0013F088
:10020000010F18BFFB1A43F001031847DC48000038
:10021000FC4800000A444FF0000C10F8013B13F0BA
:10022000070408BF10F8014B1D1108BF10F8015B4F
:10023000641E05D010F8016B641E01F8016BF9D142
:1002400013F0080F1EBF10F8014BAD1C0C1B09D199
:100250006D1E58BF01F801CBFAD505E014F8016B0B
:1002600001F8016B6D1EF9D59142D6D3704700009D
:100270000023002400250026103A28BF78C1FBD8AF
:10028000520728BF30C148BF0B6070471FB504F04C
:10029000DBFB1FBD10B510BD00F068F91146FFF77C
:1002A000F5FF04F0A1F900F086F903B4FFF7F2FFBF
:1002B00003BC00F08DF90000094880470948004759
:1002C000FEE7FEE7FEE7FEE7FEE7FEE7FEE7FEE706
:1002D000FEE7FEE704480549054A064B7047000063
:1002E000AD380008D901000810080020100E0020C9
:1002F000100A0020100A002053EA020C00F0698066
:100300002DE9F04B4FF00006002B1FBFB3FA83F529
:1003100003FA05F424FA05F65E4012BF1643B2FA5A
:1003200082F502FA05F4C5F120051EBF22FA05FC8C
:1003300044EA0C04203556EA044C4FEA144418BF32
:10034000641C4FF000084FF00009904271EB030C61
:1003500039D3002919BFB1FA81F701FA07F6B0FACB
:1003600080F700FA07F6C7F120071EBF20FA07FC46
:1003700046EA0C062037B6FBF4FCA7EB0507103F56
:1003800007F01F0BCBF120060CFA0BFB2CFA06F63C
:1003900044BFB3460026202FA4BF5E464FF0000B9B
:1003A0005BEA060C08BF4FF0010B19EB0B09ABFB26
:1003B000027C48EB0608C01B06FB02CC0BFB03CCFF
:1003C00071EB0C01C1E70B46024641464846BDE8C9
:1003D000F08B13B54FF000004FF00001AFF3008039
:1003E000BDE81C407047032A40F2308010F0030C37
:1003F00000F0158011F8013BBCF1020F624498BF78
:1004000011F801CB00F8013B38BF11F8013BA2F114
:10041000040298BF00F801CB38BF00F8013B11F08F
:10042000030300F07180083AC0F0088051F8043BE3
:10043000083A51F804CBA0E80810F5E7121D5CBF9C
:1004400051F8043B40F8043BAFF30080D20724BFCF
:1004500011F8013B11F801CB48BF11F8012B24BF63
:1004600000F8013B00F801CB48BF00F8012B7047B2
:100470004FF000020429C0F0128010F0030C00F0CD
:100480001B80CCF1040CBCF1020F18BF00F8012B4B
:10049000A8BF20F8022BA1EB0C0100F00DB85FEA19
:1004A000C17C24BF00F8012B00F8012B48BF00F8E5
:1004B000012B70474FF0000200B513469446964654
:1004C000203922BFA0E80C50A0E80C50B1F1200167
:1004D000BFF4F7AF090728BFA0E80C5048BF0CC015
:1004E0005DF804EB890028BF40F8042B08BF704773
:1004F00048BF20F8022B11F0804F18BF00F8012BE5
:10050000704770477047704710B5203AC0F00B80B5
:10051000B1E81850203AA0E81850B1E81850A0E807
:100520001850BFF4F5AF5FEA027C24BFB1E8185061
:10053000A0E8185044BF18C918C0BDE810405FEAD1
:10054000827C24BF51F8043B40F8043B08BF70474D
:10055000D20728BF31F8023B48BF11F8012B28BF52
:1005600020F8023B48BF00F8012B7047754600F0A9
:100570002BF8AE4605006946534620F00700854635
:1005800018B020B5FFF7A6FEBDE820404FF00006EA
:100590004FF000074FF000084FF0000B21F007016B
:1005A000AC46ACE8C009ACE8C009ACE8C009ACE8AE
:1005B000C0098D46704710B50446AFF30080204651
:1005C000BDE81040FFF771BE00487047B00700203B
:1005D00001491820ABBEFEE726000200704710B5A7
:1005E000846AE16D11F0500F06D0E16DC90625D582
:1005F000204600F0BDFC10BDE06D40F40070E065E9
:1006000020680168090716D502F0B5FE78B12068A8
:10061000C068800400280ADBE06D20F48070E0658B
:10062000E06DC00403D4E06D40F00100E0652046B9
:1006300000F09CFC10BDC0688007EBE7616D496B62
:10064000BDE81040084710B5806AC16D41F0400117
:10065000C165016E41F00401016600F089FC10BD26
:1006600010B5806A00F083FC10BD0000F8B50446A8
:10067000002000902068816811F0010F41D181684D
:10068000214A11422ED18168D5432940491C8160FD
:100690001E48806800F0E07000020DD51C481D491E
:1006A0000068B0FBF1F0401C00EB4000800000E06F
:1006B000401E00900028FBD101F004F906461BE023
:1006C000816811F0010F03D181682940491C8160C4
:1006D00001F0F8F8801B02280ED920680068C0439A
:1006E000C00709D0E06D40F01000E065206E40F0DA
:1006F000010020660120F8BD20680168C943C907D0
:10070000DED10020F8BD00003F0000800003005053
:100710009C010020400D030070B500250E46012805
:1007200001D9AD1E11E000EB800101EB401108483A
:1007300000EB8100044600F095F82046314602F0B7
:1007400043FF10B16FF0030070BD284670BD00007C
:100750001C07002070B50446114886B0C16C41F0FA
:100760000101C164C06C0F4E00F00100059036F825
:100770001400009001200190002002900A4D0320F7
:10078000039055F82400694600F066FF36F814100F
:1007900055F82400002201F090F806B0002070BD4A
:1007A000001002409E4A00087401002070470000BB
:1007B000024901EBC00000F023BF000088010020C7
:1007C00030B50446214887B0C26C42F00402C264CE
:1007D000C06C00F0040005901D4830F81400009033
:1007E0000220029003901B4850F8240041B34FF4BC
:1007F00088110191694600F02FFF1548001D50F83F
:1008000024101448103000EBC400054600F0F2FE3E
:1008100010480021083050F82420284600F006FF38
:100820000C480B4D0C302D1F50F824102857002277
:1008300001F0AEF8285701F09DF807B0002030BD58
:1008400000210191694600F007FFF6E70010024021
:10085000A04A00087801002010B50020FFF7A6FF8D
:1008600010BDFEE770B5194886B0C16C41F00101BA
:10087000C164C16C01F001010591C16C41F001013D
:10088000C164C16C01F001010591C16D41F001012C
:10089000C165C06D022400F0010005900420CDE97F
:1008A000000402AA01200C2582E831004FF0904696
:1008B0006946304600F0D0FE0820CDE900046946C4
:1008C0000495304600F0C8FE06B070BD001002402E
:1008D000014800F08CBD000084040020014800F0B5
:1008E00086BD00005C060020014800F080BD0000CD
:1008F000BC0600200D4902688A4201D20C4901E081
:100900000B492031D2B21423083AB2FBF3F2436C04
:1009100002F01F0223F0030319448164044980316B
:10092000C164012191400165704700000804024044
:10093000000802400179074A02EB81024265054A3C
:100940004432491E826501F01F0201219140C165B8
:1009500070470000FC08024030B5D0E913456560DF
:10096000446D14B1D0E91645656090F8444004F038
:100970001F050124AC40056C6C60046863608368EB
:10098000102B036803D099600068C26030BD9A6084
:100990000068C16030BD704710B500F005F8BDE8D3
:1009A00010400020FFF704BF10B500F08BFF00EEF1
:1009B000100A134C1349B8EE400AD4ED000A30EE89
:1009C000600A10EE100A884215DB00F07BFF00EE93
:1009D000100A20214FF09040B8EE400A84ED000A42
:1009E00000F063FFA1680848012905D041F2121107
:1009F00001600120A06010BD00210160A16010BD58
:100A0000F0000020000096430001002010B503F024
:100A100029FEBDE81040022000F012BE10B503F020
:100A200021FEBDE81040042000F00ABE10B503F01E
:100A300019FEBDE81040082000F002BE10B503F01A
:100A400017FEBDE81040102000F0FABD10B503F00D
:100A500041FE202000F0F4FD402000F0F1FDBDE853
:100A600010404FF4807000F0EBBD72B6FEE700005E
:100A70002DE9F047044690F858009CB00E464FF020
:100A80000009012815D0012084F858000025179589
:100A9000189520684FF0A04840450ED1284F009788
:100AA000384602F064FC8246206802F060FC60B1C7
:100AB0000EE002201CB0BDE8F087E06D40F02000A1
:100AC000E06584F858500120F4E7BAF1000F09D02E
:100AD000E06D40F02000E0654FF0010984F85850C7
:100AE0004846E7E71748326840F61F71002A8268D7
:100AF00022F4604216D094F8383042EA43327368E8
:100B00001A438260D8F80820BB6802F0010203F0A3
:100B100001031A43E2D1B36832681A4383688B43F6
:100B20001A430BE08260D8F80820BB6802F001028B
:100B300003F001031A43D1D182688A438260CDE772
:100B400000010050000300502DE9F84F0027044633
:100B5000009790F85800DFF8E0930D46B84601285A
:100B600011D0012684F85860206802F0FCFB60B1C7
:100B7000E06D40F02000E0655FF0010784F85880E8
:100B80003846BDE8F88F0220FBE7D5E900210C23A9
:100B9000206803EA91131844036B01F01F014FF022
:100BA0001F0C0CFA01FCC2F3846223EA0C038A4096
:100BB00013430363206802F0D6FB8246206802F0EC
:100BC000CEFB5AEA00003CD1AA6829682068B2F13D
:100BD000004F37D002F0D7FB2068416921F0004177
:100BE000416120686969C268C2F3C1025200914044
:100BF0002A69042A31D000EB82002B68026EDFF8EC
:100C00003CC303F0F84302EA0C020B431A4342F0E0
:100C10000041016620682A69A96900EB8200026E22
:100C200022F080720A430266297F2268286901291E
:100C300010D0002102EB8000026E22F000720A4305
:100C400002667DE0002202F09EFB2068416941F0CF
:100C50000041C5E74FF00071ECE7002102F079FB9D
:100C6000400320684FF0000172D002F072FB90FA4E
:100C7000A0F0B0FA80F1286842036ED090FAA0F09C
:100C8000B0FA80F0814204D100221146206802F0BF
:100C900089FB0121206802F05CFB400320684FF0D3
:100CA00001015DD002F055FB90FAA0F0B0FA80F19E
:100CB0002868420359D090FAA0F0B0FA80F081423F
:100CC00004D100220121206802F06CFB022120687F
:100CD00002F03FFB400320684FF0020148D002F0D1
:100CE00038FB90FAA0F0B0FA80F12868420344D0B3
:100CF00090FAA0F0B0FA80F0814204D100220221E3
:100D0000206802F04FFB0321206802F022FB400321
:100D100020684FF0030133D002F01BFB90FAA0F0E3
:100D2000B0FA80F1286842032FD090FAA0F0B0FA10
:100D300080F0814204D100220321206802F032FBBE
:100D40002068816811F0010F22D0ACE000E004E0DF
:100D500002F0FFFAC0F384618DE7C0F3846091E78D
:100D600002F0F7FAC0F38461A2E7C0F38460A6E75B
:100D700002F0EFFAC0F38461B7E7C0F38460BBE729
:100D800002F0E7FAC0F38461CCE7C0F38460D0E7F7
:100D90002A7B296850F8B03FC1F3120C23EA0C03F8
:100DA00002F0180C664A22FA0CF20A401343036060
:100DB000E968494577D1286841031CD090FAA0F131
:100DC000B1FA81F1491C01F01F0109294FEA4031B4
:100DD00032D8002912D000BF90FAA0F1B1FA81F107
:100DE00001F1010101F01F0106FA01F609D100BF6E
:100DF000C0F3846109E0C0F38461E3E7C0F3846178
:100E0000EEE790FAA0F1B1FA81F101F1010101F0F0
:100E10001F0146EA816102D1C0F3846003E090FAC9
:100E2000A0F0B0FA80F000F1010000F01F0000EB2C
:100E3000400041EA005132E000290ED090FAA0F1C2
:100E4000B1FA81F101F1010101F01F0106FA01F689
:100E500006D100BFC0F3846106E0C0F38461F1E70E
:100E600090FAA0F1B1FA81F101F1010101F01F0145
:100E700046EA816102D1C0F3846003E090FAA0F0F9
:100E8000B0FA80F000F1010000F01F002D4A00EBE5
:100E9000400002EB005041EA000141F00071AA68F5
:100EA000206802F070FA28482A6802423FF466AED1
:100EB00026488168264B01F0E0719A4202D0254B0A
:100EC0009A421CD10B021AD42268B2F1A04F7FF4CF
:100ED00055AE826841F4000122F0E0720A4382605C
:100EE0001D481E490068B0FBF1F0401C00EB4000BB
:100EF000800000E0401E00900028FBD13EE6184D27
:100F0000184BAA4207D1CD0105D422689A42F5D0E8
:100F100041F0807109E0144DAA42EFD14A02EDD4AC
:100F200022689A42EAD041F48001826822F0E0729D
:100F30000A43826022E6000000007F4000F0FF03C9
:100F4000FFFF0700000020FE0000088000030050A3
:100F5000000021C31000C0909C010020400D030040
:100F6000000052C700010050000084CB704770475A
:100F700070470000F8B54FF0000504002E460095BC
:100F800002D0E06D10B107E00120F8BD204600F06E
:100F9000EBF8266684F8586020688168C1F34071D8
:100FA00019B18168684A1140816020688168C1F385
:100FB000007189B98168654A114041F080518160B2
:100FC000634864490068B0FBF1F04000801C00E019
:100FD000401E00900028FBD120688168C1F3007199
:100FE00041B9E16D41F01001E165216E41F001016F
:100FF0002166012502F0B7F9E16DC90600D430B1D0
:10100000E06D40F01000E06501252846F8BDE06D78
:1010100020F4807040F00200E0652068806810F0E5
:10102000010F11D14FF0A04080684B4900F0010042
:10103000896801F00101084306D148486168826867
:1010400022F47C120A438260E168E06B627F08430D
:10105000A16841EA4231084394F8241040EA014073
:10106000012904D1218D3E4A02EB41410843E16A46
:1010700029B101F47871226B014342EA0100226830
:10108000D168384B19400143D16020680169626B17
:1010900021F0406111430161206802F060F970BBEA
:1010A000207F94F83810800340EA41022168C86824
:1010B00044F2020398431043C86020690028206866
:1010C00001690AD041F480310161206850F8C01FE5
:1010D00022696FF30D01114307E021F480310161B2
:1010E000206850F8C01F6FF30D01016094F84000B4
:1010F00001280CD02068016921F0010101616069BB
:1011000001282068016B21F00F0111D013E0D4E910
:1011100011010843D4E913121143084321680A69F5
:1011200040F2FC739A43104340F001000861E6E787
:10113000226A521E11430163E06D20F0020040F06C
:101140000100E06561E70000C0FFFF5FC0FFFF7FB7
:101150009C010020400D03000001005000030050DE
:101160000000FEFF0740F0FF70B598B0054614215F
:1011700011A8FFF79FF944216846FFF79BF92868FB
:10118000B0F1A04F3FD14FF40040009080030F908A
:10119000684600F095FC08B1FFF767FC1B49C86C76
:1011A00040F40050C864C86C00F400501690C86C3D
:1011B00040F00200C864C86C002600F002001690DF
:1011C00041F2020011900320CDE9120611A9104846
:1011D00000F042FA104C0F4820600520C4E90106D7
:1011E0008020C4E90360400060618000A06120208D
:1011F000E061C0012062204600F056F908B1FFF717
:1012000034FC6C65A56218B070BD0000001002408F
:101210000004004808000240840400202DE9F04149
:101220000446344817468846806800F01F05206849
:1012300002F099F800285AD194F85800012856D0A5
:10124000012084F85800002625B1052D02D0092D73
:1012500000D003E02046FFF709FA18B184F858607F
:10126000BDE8F081E06D40F60161884340F4807094
:10127000E06521492068884202D14FF0A04100E09A
:101280000146814200D01DB9E06D20F48010E06578
:10129000E06DC00404D5206E20F00600206600E05A
:1012A0002666616D1548C862616D15480863616DF9
:1012B0001448486321681C20086084F8586020683E
:1012C000416841F0100141602068C16841F00101AE
:1012D000C16021683B4642464031606D00F044F9F0
:1012E00021688A68084B1A40121D8A60B8E70220FC
:1012F000B6E700000003005000010050DF050008C1
:101300006106000847060008C0FFFF7F10B590F88F
:10131000253000210122022B03D00421C1630121C9
:1013200022E003681C6824F00E041C60836C1C68B7
:1013300024F480741C6003681C6824F001041C60A1
:1013400090F84430046C03F01F0302FA03F3636067
:10135000D0E913345C60436D33B11C6824F48074AD
:101360001C60D0E916345C6080F82520002280F8EB
:101370002420084610BD70B590F8252000240121D6
:101380002346022A07D00422C26380F8251080F881
:101390002430012429E00268156825F00E05156047
:1013A0000268156825F001051560826C156825F442
:1013B0008075156090F84420056C02F01F0201FA58
:1013C00002F26A60D0E913255560426D32B11568AA
:1013D00025F480751560D0E91625556080F8251034
:1013E00080F82430816B01B18847204670BDF0B48D
:1013F000016C0C6801680D6890F8442002F01F062B
:10140000042202FA06F3234211D06B070FD50B68B2
:101410009B0603D40B6823F004030B6090F8441080
:1014200001F01F018A40016C4A60016B1DE002233C
:1014300003FA06F727424FF0000C4FF0010218D0D4
:10144000AF0716D50C68A40605D40C6824F00A046E
:101450000C6080F8252090F8441001F01F018B40AB
:10146000016C4B6080F824C0C16A00291AD0F0BC1E
:1014700008470823B340234214D02B0712D50B682A
:1014800023F00E030B6090F84410036C01F01F0171
:1014900002FA01F15960C26380F8252080F824C067
:1014A000416BE2E7F0BC704770B504000CD02B4AEA
:1014B00021681420914209D2294A0A44B2FBF0F073
:1014C0008000606427480AE0012070BD234A524230
:1014D0000A44B2FBF0F080006064204808382064C1
:1014E000022084F825000A6847F6F0708243D4E9A8
:1014F00002031843D4E904352B431843A369184366
:10150000E3691843236A1843104308602046FFF735
:10151000F1F9A0680025B0F5804F00D16560A16C9D
:1015200020790860D4E9130141606068401E0328F7
:1015300008D82046FFF7FEF9606D0560D4E9160172
:10154000416002E06565A565E565E563012084F815
:10155000250084F82450002070BD000008040240DB
:10156000F8FFFDBF0000024070B5044690F824006B
:10157000002501280CD0012084F8240094F825606F
:101580000020012E06D084F824000225284670BDD4
:10159000022070BD022684F82560E063206806689A
:1015A00026F0010606602046FFF7D6F9206B0028DA
:1015B0002068016802D041F00E0106E021F004012C
:1015C00001602068016841F00A010160A06C0168B7
:1015D000C90303D5016841F480710160606D18B1E1
:1015E000016841F4807101602068016841F00101E7
:1015F0000160CBE710B10160002070470120704707
:1016000002680123C2F3004102F01F029340064A20
:1016100002EB41110A681A4204D00B6040680028AE
:1016200000D000477047000014040140034600202A
:1016300011B15860012070475A6070477047000030
:10164000044910B50A68024202D00860FFF7F6FFAD
:1016500010BD0000140401402DE9F04FDFF8209286
:10166000002301260324A9F1040B85B00F2709F1FB
:10167000040AABF1040EFAE006FA03F52A407CD026
:1016800091F804C00CF0030CBCF1010F02D0BCF1C6
:10169000020F26D1D0F808C0CDF800C04FEA430CA5
:1016A00004FA0CF8CDF810C0DDF800C02CEA080CE4
:1016B000CDF800C0D1F80C80DDF810C008FA0CF8A5
:1016C000DDF800C048EA0C08C0F80880D0F804C073
:1016D0002CEA050C0D79C5F300159D4045EA0C0573
:1016E00045600D79ED43AD070ED0C5684FEA43085C
:1016F00004FA08FC25EA0C05D1F808C00CFA08FC2D
:101700004CEA050CC0F80CC00D7905F00305022D5C
:1017100016D1DD0800EB850CCDF808C0DCF8208080
:101720005D074FEAD56C07FA0CF528EA05080D6944
:1017300005FA0CF5DDF808C045EA0805CCF820509C
:1017400005684FEA430CCDF808C004FA0CFC25EA02
:101750000C0591F804C00CF00308DDF808C008FA85
:101760000CF848EA0508C0F800804D6815F4403FC1
:101770007CD0444DD5F860C000E077E04CF0010C1F
:10178000C5F860C02D6E23F0030C05F0010500952F
:101790003D4D65440295AD684FEA837C4FEA1C7865
:1017A00007FA08FC25EA0C05B0F1904F06D0DFF8E7
:1017B000DCC0604505D14FF0010C20E04FF0000C7B
:1017C0001DE0DFF8CCC0604502D14FF0020C16E0FE
:1017D000DFF8C0C0604502D14FF0030C0FE0DFF826
:1017E000B8C0604502D14FF0040C08E0DFF8ACC08F
:1017F000604502D14FF0050C01E04FF0060C0CFAE9
:1018000008FC4CEA050C029DC5F808C0D9F8005048
:10181000CC46D1F8048095435FEAC82800D515432B
:10182000CCF80050DAF80050D446D1F80480954343
:101830005FEA882800D51543CCF80050DBF800504B
:10184000DC46D1F8048095435FEA883800D515431B
:10185000CCF80050DEF80050F446D1F804809543EF
:101860005FEAC83800D51543CCF800505B1C0A6805
:1018700032FA03F57FF400AF05B0BDE8F08F000049
:10188000080401400010024000000140000400482C
:1018900000080048000C00480010004800140048F0
:1018A0000069084000D001207047426921EA020324
:1018B0000A4043EA0241816170470AB18161704781
:1018C00081627047014880687047000090010020E5
:1018D000024881684268114481607047900100208D
:1018E00010B50024032000F073F8002000F008F881
:1018F00008B1012401E000F025F8204610BD0000E9
:1019000070B50E4E05460024706898B14FF47A7198
:10191000B1FBF0F00A490968B1FBF0F000F060FD9E
:1019200040B9102D06D200222946501E00F030F892
:10193000356000E00124204670BD000090010020C9
:101940009C0100200A4882B0016E41F0010101664D
:10195000016E01F001010091816D41F080518165BE
:10196000806D00F08050009002B000F0A1B800003F
:1019700000100240002809DB00F01F020121914005
:101980004009800000F1E020C0F80011704700001D
:10199000F0B40E4B1B680C46C3F30223C3F10705DA
:1019A000042D00D90425191D072901D2002300E0C8
:1019B000DB1E012606FA05F1491E214099409E4092
:1019C000761E16403143F0BC02F031BD0CED00E054
:1019D000064900F0070208684FF6FF03184040EA86
:1019E0000220034A10430860704700000CED00E03D
:1019F0000000FA052B492C4B0A6832214A432B4937
:101A000040B1B0F5007F086829D020F4C06040F4F0
:101A100080602CE00868C0F34120022804D051F80F
:101A2000800F20F4807022E0D1F8800020F48070D4
:101A3000C1F88000086820F4C06040F400700860BD
:101A4000B2FBF3F0401C00E0401E4A69520501D58C
:101A50000028F9D1486940050AD503207047C0F332
:101A60004120022806D051F8800F40F480700860B1
:101A700000207047D1F8800040F48070C1F88000E9
:101A8000086820F4C06040F400700860B2FBF3F016
:101A9000401C00E0401E4A695205DBD50028F9D100
:101AA000D8E700009C01002040420F000070004079
:101AB0000248816841F480418160704700700040B5
:101AC0002DE9F8430446006800269D4D00035ED5CD
:101AD000A86D0027C00008D4A86D40F08050A8650C
:101AE000A86D012700F080500090DFF85892D9F8D7
:101AF000001041F48071C9F80010FFF7E3FE804642
:101B000006E000BFFFF7DEFEA0EB080002282BD89E
:101B1000D9F80000C005F5D5D5F8900010F4407054
:101B200014D0216C814211D0D5F89000D5F89010D6
:101B300020F4407041F48031C5F89010D5F8901031
:101B400021F48031C5F89010C5F89000C00711D07D
:101B5000FFF7B8FE804641F2883907E0FFF7B2FE92
:101B6000A0EB0801494501D903260BE0D5F8900008
:101B70008007F3D5D5F89000216C20F4407008431D
:101B8000C5F890001FB1A86D20F08050A86520789E
:101B9000C00707D0D5F88800616820F0030008432B
:101BA000C5F888002078800707D5D5F88800A16897
:101BB00020F00C000843C5F888002078400707D5BE
:101BC000D5F88800E16820F030000843C5F88800A7
:101BD0002078000707D5D5F88800216920F0C000DB
:101BE0000843C5F888002078800607D5D5F8880016
:101BF000616920F440600843C5F8880020784006F9
:101C000007D5D5F88800A16920F440500843C5F8ED
:101C100088002078000607D5D5F88800E16920F40F
:101C200040400843C5F888002088C00507D5D5F88E
:101C30008800216A20F440300843C5F888002088D5
:101C4000800507D5D5F88800616A20F44020084354
:101C5000C5F88800208840050FD5D5F88800A16A0E
:101C600020F440100843C5F88800A06AB0F5801F32
:101C700003D1E86840F48010E860208800050FD5A3
:101C8000D5F88800E16A20F440000843C5F88800D0
:101C9000E06AB0F5800F03D1E86840F48010E86096
:101CA0002088C0040FD5D5F88800216B20F0407043
:101CB0000843C5F88800206BB0F1807F03D1E86845
:101CC00040F48010E86020884FF0006180040ED559
:101CD000D5F88800626B20F040601043C5F888009A
:101CE000606B884203D1E86840F48010E860208887
:101CF00040040ED5D5F88800A26B20F04060104358
:101D0000C5F88800A06B884203D1E86840F48010D1
:101D1000E860208800040FD5D5F88800E16B20F03A
:101D200040500843C5F88800E06BB0F1805F03D1F4
:101D3000E86840F48030E8603046BDE8F883000091
:101D400000100240007000402DE9F0470E460500EB
:101D50004FF0000725D0DFF8AC81D8F8000000F084
:101D60000F00B0420CD2D8F8001021F00F0131431F
:101D7000C8F80010D8F8000000F00F00B04210D1F1
:101D80002968614CC80741F2883A5AD06868DFF880
:101D90007C91032808D0022820682DD04005002817
:101DA0002CDB0120BDE8F08720688001F9D5E068D0
:101DB00000F00302E068C0F30310401C032A19D0AE
:101DC000534A00BFB2FBF0F0E268C2F30622504370
:101DD000E268C2F34162521C5200B0FBF2F0484587
:101DE00017D9A06810F0F00F0CD0880711D5A8689B
:101DF00040B10EE0474AE5E78003D0E700F0B6F8CF
:101E0000484506D9A06820F0F00040F08000A060AE
:101E10008027A068696820F003000843A060FFF7EE
:101E200051FD814606E000BFFFF74CFDA0EB090124
:101E300051453AD8A068696800F00C00B0EB810FFA
:101E4000F2D12868810714D5400703D5A06840F473
:101E5000E060A0602878000705D5A06820F46050F5
:101E600040F4E060A060A068A96820F0F00008439A
:101E700004E0802F03D1A06820F0F000A060D8F823
:101E80000010404601F00F01B14216D9016821F05F
:101E90000F0131430160FFF715FD074607E000BF62
:101EA000FFF710FDC11B514501D903207AE7D8F88F
:101EB000000000F00F00B042F2D12878400705D5AD
:101EC000A068E96820F4E0600843A0602878000773
:101ED00006D5A068296920F4605040EAC100A060DE
:101EE00000F044F8A1680C4AC1F30311515C01F001
:101EF0001F01C8400949086009480068BDE8F0476B
:101F0000FFF7FEBC002002400010024000B4C404F1
:101F10000024F40000366E01D04A00089C01002025
:101F2000900100200548064900688968054AC1F308
:101F30000221515C01F01F01C84070479C01002044
:101F400000100240E04A0008054806490068896818
:101F5000054AC1F3C221515C01F01F01C84070471E
:101F60009C01002000100240E04A0008184910B50A
:101F70008868C0F381021748012A0BD08A68164B83
:101F8000C2F38102022A06D08A68C2F38102032AC0
:101F900003D0002010BD184610BDCA6802F003042B
:101FA000CA68C2F30312521C032C02D0B0FBF2F039
:101FB00001E0B3FBF2F0CA68C968C2F306225043DD
:101FC000C1F34161491C4900B0FBF1F010BD0000B4
:101FD000001002400024F40000366E012DE9F843A1
:101FE00004007AD02078F84DC00747D0A868E96887
:101FF00000F00C0001F003010C2802D0082817D0D3
:1020000001E0032914D06068B0F5803F17D0B0F527
:10201000A02F286817D020F480302860286820F48A
:10202000802028606068E0B1FFF74CFC064614E0B1
:102030002868800322D560680028D2D01EE0286876
:1020400040F48030EDE740F480202860F7E700BFDF
:10205000FFF738FC801B642870D828688003F7D508
:102060000CE0FFF72FFC064605E000BFFFF72AFC57
:10207000801B6428F0D828688003F7D42078800774
:102080004CD5A868E96800F00C0001F003010C28A9
:1020900002D004280DD001E002290AD0E06800280F
:1020A00028682BD040F480702860FFF70BFC0646B0
:1020B00019E02868400502D5E068002891D06868DA
:1020C000217C20F0FE4040EA01606860BF48006863
:1020D000FFF716FC002800D120E072E1FFF7F2FBC9
:1020E000801B0228B8D828684005F7D56868217C8D
:1020F00020F0FE4040EA016068600FE020F480704C
:102100002860FFF7DFFB064605E000BFFFF7DAFBBC
:10211000801B0228A0D828684005F7D42078000743
:1021200029D560690028D5F8940013D040F001004B
:10213000C5F89400FFF7C6FB064606E090E000BF36
:10214000FFF7C0FB801B022886D8D5F894008007D3
:10215000F6D510E020F00100C5F89400FFF7B2FBBF
:10216000064604E0FFF7AEFB801B022878D8D5F8BE
:1021700094008007F6D42078400761D5A86D00262A
:10218000C00008D4A86D40F08050A865A86D012655
:1021900000F0805000908E480168C90511D4016894
:1021A000804641F480710160FFF78CFB074604E034
:1021B000FFF788FBC01B022852D8D8F80000C005E2
:1021C000F6D5A068012815D00528D5F8900016D0BE
:1021D00020F00100C5F89000D5F8900020F0040030
:1021E000C5F89000A06841F28838B8B1FFF76AFBE3
:1021F00007460EE0D5F8900040F00100F0E740F00F
:102200000400C5F89000F5E7FFF75CFBC11B4145F2
:1022100026D8D5F890008007F6D50CE0FFF752FBE2
:10222000074604E0FFF74EFBC11B414518D8D5F81F
:1022300090008007F6D41EB1A86D20F08050A865EC
:102240002078800629D5A0690028D5F8980013D0F9
:1022500040F00100C5F89800FFF734FB064606E0A1
:1022600075E000BFFFF72EFB801B02286FD8D5F862
:1022700098008007F6D510E020F00100C5F898001E
:10228000FFF720FB064604E0FFF71CFB801B02283B
:102290005DD8D5F898008007F6D4E069F0B3A96856
:1022A000C1F3810103295DD00228286820F08070E5
:1022B000286003D0FFF706FB04464BE0FFF702FB64
:1022C000064604E0FFF7FEFA801B02283FD8286884
:1022D0008001F7D4F4E908016FF00F0202EB01115D
:1022E0000843218A5204490802EB4151A26841EA9D
:1022F00002210843217D4FF07E42490802EB4161F3
:102300000843217B40EAC160E968324A1140084332
:10231000E860286840F08070286000E05EE0E868CF
:1023200040F08070E860FFF7CDFA044605E000BF9A
:10233000FFF7C8FA001B022809D828688001F7D5E2
:102340004CE000BFFFF7BEFA001B022802D90320B1
:10235000BDE8F88328688001F4D4E8681E49084085
:10236000E8603BE00128F3D0E868226A00F003014E
:10237000914226D1616A00F0F002090110399142C0
:102380001FD1A26A00F4FE41B1EB022F19D194F8DB
:102390002C2000F07841B1EBC26F12D1218E00F4F5
:1023A000C00249084905A1F50011914209D194F8EC
:1023B000341000F0C06049084906A1F10071814263
:1023C0000CD00120C4E70000001002409001002062
:1023D000007000400C809F01FCFFEEFE0020B7E77C
:1023E00010B5401EB0F1807F01D3012010BD4FF029
:1023F000E02460610F21601702F019F80020A0614D
:1024000007202061002010BD704770477047000012
:1024100030B590F83C20012A42D0012280F83C20BF
:10242000CA688B6822F440721A434B6822F48062B7
:102430001A430B6822F400621A430B6922F480529B
:102440001A434B6922F400521A430B6B22F4804268
:102450001A430B8B22F4702242EA0342CB6922F02A
:1024600080521A430F4D03680024AB4202D00E4D38
:10247000AB4210D10D8D22F4700242EA05520D6A72
:1024800022F080722A434D6A22F000722A43C96A00
:1024900022F000520A435A6480F83C40002030BDCC
:1024A000022030BD002C01400034014070477047CD
:1024B00070470000F0B590F83C20012A3AD0012581
:1024C00080F83C50022280F83D2003685A689C68DE
:1024D000194E1A4FB34201D0BB4204D122F4700C02
:1024E0004A6842EA0C02DFF858C002EA0C02D1F84E
:1024F00000C04CEA020CC3F804C00268B2420DD01E
:10250000B2F1804F0AD00F4B9A4207D00E4B9A423D
:1025100004D0BA4202D00D4B9A4204D1896824F00B
:1025200080031943916080F83D50002180F83C10F1
:102530000846F0BD0220F0BD002C014000340140EF
:102540008FFFFFFD000400400008004000400140F4
:102550007047000090F83D10012901D0012070471C
:10256000022180F83D100168CA6842F00102CA6089
:102570000068104988420ED0B0F1804F0BD00E4950
:10258000884208D00D49884205D00D49884202D0C2
:102590000C49884207D181680B4A1140062906D0B0
:1025A000B1F5803F03D0016841F0010101600020D6
:1025B00070470000002C014000040040000800406B
:1025C00000340140004001400700010070472DE940
:1025D000F04104460068C66805694FF00007A90786
:1025E00013D5B10711D5F91E0161012020772068AC
:1025F00080698007204602D0FFF7E8FF04E000F082
:1026000052F9204600F08AFA2777680716D5700736
:1026100014D521686FF0040008610220207720683B
:10262000806910F4407F204602D0FFF7CFFF04E01E
:1026300000F039F9204600F071FA2777280715D500
:10264000300713D521686FF0080008610420207757
:102650002068C0698007204602D0FFF7B7FF04E07A
:1026600000F021F9204600F059FA2777E80616D540
:10267000F00614D521686FF010000861082020775B
:102680002068C06910F4407F204602D0FFF79EFF0B
:1026900004E000F008F9204600F040FA2777E80748
:1026A00008D0F00706D021686FF0010008612046CD
:1026B00000F0B4FA280601D4A80408D5300606D5DF
:1026C00021686FF4025008612046FFF79EFEE8057E
:1026D00008D5300606D521686FF480700861204661
:1026E000FFF792FE680608D5700606D521686FF0E0
:1026F00040000861204600F092FAA80608D5B0060E
:1027000006D521686FF0200008612046FFF77EFEA5
:10271000E80208D5F00206D521686FF48010086140
:102720002046FFF7C4FEA80208D5B00206D52168EE
:102730006FF4001008612046FFF7B8FE680208D564
:10274000700206D521686FF4800008612046FFF70B
:10275000AFFE28020AD5300208D521686FF40000C8
:1027600008612046BDE8F041FFF7F2BEBDE8F08108
:10277000F0B587B0044614216846FDF79BFE21683A
:1027800000242A4802250126294F4FF09042B1F13A
:10279000804F27D0274B994222D1C16C41F00101D3
:1027A000C164C16C01F001010591C16C41F00201ED
:1027B000C164C06C694600F0020005905020009092
:1027C000CDE901541046CDE90345FEF745FF0096DB
:1027D000CDE9015469463846CDE90345FEF73CFF93
:1027E00007B0F0BDC16C41F00101C164C16C01F0E2
:1027F00001010591C16C41F00201C164C06C6946E0
:1028000000F00200059003200090CDE90154CDE9CD
:1028100003461046FEF720FF4FF480600090CDE99C
:102820000154CDE9034669463846D7E70010024017
:10283000000400480004004070B5044690F83C00D5
:10284000002501280BD0012084F83C000C2A1ED062
:1028500007DC82B1042A12D0082A06D113E0022034
:1028600070BD102A17D0142A19D00125002084F831
:102870003C00284670BD206801F098F8F6E7206813
:1028800001F0E2F8F2E7206801F026F9EEE72068AF
:1028900001F06AF9EAE7206801F0AEF9E6E720689E
:1028A00001F0E2F9E2E7704710B5040003D094F8B4
:1028B0003D0010B107E0012010BD002084F83C006D
:1028C000204600F023F8022084F83D00211D2068F6
:1028D00001F000F8012084F8480084F83E0084F8F4
:1028E0003F0084F8400084F8410084F8420084F8F6
:1028F000430084F8440084F8450084F8460084F8D6
:10290000470084F83D00002010BD000008B50068B5
:102910000649884208D10648016E41F4006101660B
:10292000006E00F40060009008BD0000002C014023
:102930000010024070B5044690F83C0000260D4699
:1029400001280BD0012084F83C000C2A4AD007DC77
:1029500082B1042A20D0082A06D131E0022070BDBD
:10296000102A53D0142A63D00126002084F83C009A
:10297000304670BD206801F019F82068816941F087
:10298000080181612068816921F00401816120686A
:1029900081692A69114311E0206801F055F8206827
:1029A000816941F4006181612068816921F480615D
:1029B0008161206881692A6941EA02218161D4E745
:1029C000206801F089F82068C16941F00801C161FF
:1029D0002068C16921F00401C1612068C1692A69C8
:1029E000114311E0206801F0BFF82068C16941F48B
:1029F0000061C1612068C16921F48061C161206802
:102A0000C1692A6941EA0221C161AEE7206801F08B
:102A1000F3F82068016D41F0080101652068016D3F
:102A200021F0040101652068016D2A69114311E05C
:102A3000206801F019F92068016D41F40061016519
:102A40002068016D21F4806101652068016D2A69AB
:102A500041EA0221016588E710B5040003D094F82B
:102A60003D0010B107E0012010BD002084F83C00BB
:102A7000204600F023F8022084F83D00211D206844
:102A800000F028FF012084F8480084F83E0084F814
:102A90003F0084F8400084F8410084F8420084F844
:102AA000430084F8440084F8450084F8460084F824
:102AB000470084F83D00002010BD000008B5016803
:102AC0001448B1F1804F14D0134A914220D1816D46
:102AD00041F002018165806D002200F0020000904B
:102AE00011461D20FEF754FF1D20BDE80840FEF7EB
:102AF00041BF816D41F001018165806D002200F0D0
:102B00000100009011461C20FEF742FF1C20ECE75C
:102B100008BD0000001002400004004070470000A3
:102B200030B50446022269B1042912D0082917D011
:102B30000C291CD0102921D094F84300012824D05E
:102B4000012030BD94F83E000128F9D184F83E20E0
:102B50001DE094F83F000128F2D184F83F2016E0F0
:102B600094F840000128EBD184F840200FE094F85D
:102B700041000128E4D184F8412008E094F84200A3
:102B80000128DDD184F8422001E084F843200122AD
:102B9000206800F0FDFE194B20681949194A984237
:102BA00009D0884207D0904205D0174DA84202D0E4
:102BB000164DA84203D1456C45F400454564206894
:102BC00098420CD0B0F1804F09D0114B984206D0FA
:102BD000104B984203D0884201D0904207D18168BF
:102BE0000D4A1140062906D0B1F5803F03D0016897
:102BF00041F001010160002030BD0000002C0140C7
:102C000000340140004001400044014000480140C0
:102C100000040040000800400700010070477047B2
:102C200090F88410012918D0012180F88410242103
:102C3000C0F8881001680A680B6823F001030B6074
:102C400022F0005100224266036819602021C0F87A
:102C5000881080F88420104670470220704710B515
:102C60000446D0F88C00202801D0022010BD61B1AC
:102C70005AB10120E06600202067204601F02EFBBB
:102C80000028F3D1E16E012901D0012010BD226896
:102C900010211162226852E8001F41F0100142E841
:102CA0000013002BF6D110BD30B50D460446006868
:102CB0002549D1B0884240D124480178F1B3684613
:102CC00001F09BFEEAB22249684601F082FE322101
:102CD0001F48FDF7CDFB69460DA801F0CAFD0DA9FF
:102CE0001C4801F049FD1C4890ED030A44A8B8EEC9
:102CF000400A01F05DFC44A91BA801F08FFD1448B7
:102D00001BA9323001F038FD114929A8323101F0F8
:102D100017FD29A937A801F0D0FD9DF80E2137A98C
:102D2000204600F0AFFA322209492046FFF797FF0C
:102D30002068016841F01001016000E001E051B03D
:102D400030BD01210170F8E7004800400401002077
:102D5000B4010020F102002000000020704770B58F
:102D6000044690F8840001281DD0012084F88400D6
:102D70002420C4F8880020680568026822F0010257
:102D800002602068826822F060620A438260204606
:102D900000F0A2FF206805602020C4F88800002011
:102DA00084F8840070BD022070BD70B5044690F8B0
:102DB000840001281DD0012084F884002420C4F858
:102DC000880020680568026822F00102026020681D
:102DD000826822F060420A438260204600F07CFF55
:102DE000206805602020C4F88800002084F8840052
:102DF00070BD022070BD7047704770472DE9F041EB
:102E000003680446D86919689A6840F60F05284295
:102E10004FF000054FF002060AD187067ED501F07B
:102E2000200702F0805C57EA0C0777D0616F42E11F
:102E3000B64FDFF8DCC2174001EA0C0C57EA0C0C65
:102E40006CD05FEAC07C0CD05FEAC15C09D54FF062
:102E5000010CC3F820C0D4F8903043F00103C4F84B
:102E60009030830709D5D30707D023681E62D4F8B2
:102E7000903043F00403C4F8903043070AD5D307D9
:102E800008D0266804233362D4F8903043F002035C
:102E9000C4F8903003070CD501F020033B4308D061
:102EA000266808233362D4F8903043F00803C4F84E
:102EB000903003050BD54B0109D526684FF400630C
:102EC0003362D4F8903043F02003C4F89030D4F843
:102ED0009030002B3DD0800609D501F0200002F093
:102EE0008051084303D0616F09B120468847D4F868
:102EF000900021688968490602D410F0280F2AD072
:102F0000204601F06FF82068806840061ED52068D2
:102F1000083050E8001F21F0400100E021E040E8C7
:102F20000012002AF3D1D4F8800078B17949816386
:102F3000D4F88000FEF71FFA00280AD0D4F88000E9
:102F4000816B00E02046BDE8F04108472046FFF7CE
:102F500054FFBDE8F0812046FFF74FFFC4F89050C2
:102F6000F7E7D4F86CC02027BCF1010F7ED15FEAEF
:102F7000C06C7BD55FEAC16C78D5102018622068E0
:102F80008068400651D5D4F880100A685068000463
:102F9000000C3ED0B4F85C3083423AD9A4F85E000D
:102FA0000868006880062CD4216851E8000F20F4DE
:102FB000807041E80002002AF6D12068083050E80D
:102FC000001F21F0010140E80012002AF5D120681D
:102FD000083050E8001F21F0400140E80012002AAC
:102FE000F5D1C4F88C70E566216851E8000F20F037
:102FF000100041E80002002AF6D1D4F88000FEF764
:1030000085F92667B4F85C00B4F85E10401A81B206
:1030100007E0B4F85C1081429BD11068800698D517
:1030200026672046FFF740FE93E7B4F85C00B4F84B
:103030005E10401A81B2B4F85E00002889D00029E1
:1030400087D0226852E8000F20F4907042E8000315
:10305000002BF6D12D4BDB432068083050E8002FC1
:103060001A4040E8002CBCF1000F00E00EE0F3D164
:10307000C4F88C70E5666567206850E8002F22F080
:10308000100240E80023002BF6D1C9E7C60209D59B
:10309000560207D54FF4801018622046BDE8F04173
:1030A000FFF7AABE03060AD501F0800302F400026E
:1030B000134304D0A16F00297FF444AF49E74206CF
:1030C00011D54A060FD52046016851E8002F22F09D
:1030D000400241E80023002BF6D1C0F888708567D4
:1030E00000F018F935E7020206D54A0004D520465B
:1030F000BDE8F041FFF77FBEC00195D5002993DA06
:103100002046BDE8F041FFF729BE00000100001095
:1031100020010004913E000810B5040003D0D4F84B
:10312000880010B107E0012010BD002084F8840061
:10313000204600F027F82420C4F8880020680168A1
:1031400021F001010160A06A10B1204600F0E6FD07
:10315000204600F089FF0128E6D02068416821F46C
:10316000904141602068816821F02A0181602068D7
:10317000016841F0010101602046BDE8104000F007
:1031800031BE00002DE9F04198B00646142111A887
:10319000FDF790F944216846FDF78CF93349306812
:1031A000884260D104200024009003946846FEF712
:1031B00087FC08B1FDF759FC2D48816D41F4802151
:1031C0008165816D01F480211691C16C41F002018D
:1031D000C164C06C11A900F0020016904FF4206089
:1031E00011900220CDE912040720CDE914402148B6
:1031F000FEF732FA214D20484FF0800828601C204D
:10320000C5E90104C5E903486C614FF40057AC619E
:10321000C5E907472846FEF747F908B1FDF725FC41
:10322000C6F88050AE62154D1348603514302860E2
:103230001D20686005F10801102081E811016C6112
:10324000AC61C5E907472846FEF72EF908B1FDF73E
:103250000CFCF567002211462720AE62FEF798FBB2
:103260002720FEF787FB18B0BDE8F081004800403A
:1032700000100240000400481C0002405C060020D0
:103280007047704770B50446D0F88800202801D0F8
:10329000022070BD39B332B32165A4F85420A4F8DC
:1032A00056200021C4F890102120C4F88800E06F57
:1032B000D8B1154BC362E36F14481863E36F144829
:1032C0005863E06F134681632068E56F00F12802C0
:1032D0002846216DFEF748F938B11020C4F8900057
:1032E0002020C4F88800012070BD216840200862B9
:1032F0002068083050E8001F41F0800140E80012CB
:10330000002AF5D1002070BD973F0008D93F000882
:10331000A13E0008704770470C4910B50868C269A3
:10332000D20611D510220262D1F8800000684068F0
:10333000C0F1320083B2084601F058FABDE81040EF
:1033400019460248FFF7B0BC10BD0000C8050020B8
:10335000FEE700EB8100006E00F0F84070478068E7
:10336000C0F3C00070478068C0F380007047806879
:10337000C0F380007047C06810F4406F01D0002097
:10338000704701207047042303EAD15310B5184455
:103390004369C1F3045107248C40A3438A4013437B
:1033A000436110BD00EB8100016E21F0004111432B
:1033B0000166704730B58BB0002408940994202131
:1033C00068460A94FDF776F822484FF0A04104259C
:1033D00001604FF44031C0E9011485610121C460EE
:1033E000C0E90441047741770222026280F8244058
:1033F000C462046380F83810C46380F84040FDF76D
:10340000B9FD08B1FDF731FB08A912480894FDF792
:103410002FFB08B1FDF729FB0F4800900620CDE9EE
:1034200001047F200594CDE9030569460948FDF7AD
:103430008BFB08B1FDF719FB084800900C200190A8
:1034400069460448FDF780FB002801D0FDF70DFB1D
:103450000BB030BD180400200008302E0010603280
:10346000154808B5816C41F004018164816C01F05C
:1034700004010091816C41F001018164806C0022A3
:1034800000F00100009011460B20FEF781FA0B209E
:10349000FEF770FA002211460C20FEF779FA0C2094
:1034A000FEF768FA002211460D20FEF771FABDE81A
:1034B00008400D20FEF75EBA001002402DE9F041F1
:1034C00086B014216846FCF7F5FF3C48C16C41F01A
:1034D0000401C164C16C01F004010591C16C41F0AB
:1034E0002001C164C16C01F020010591C16C41F063
:1034F0000101C164C16C01F001010591C16C41F091
:103500000201C164C06C2E4F00F002004FF4604510
:103510000590002229463846FEF7CFF9DFF8A4804F
:10352000EE10002231464046FEF7C7F94FF4BF7057
:1035300000904FF444100024CDE901046946404650
:10354000FEF78AF800950125CDE901546946384611
:103550000394FEF781F80096CDE901546946404690
:103560000394FEF779F8002211460720FEF710FABF
:103570000720FEF7FFF9002211460820FEF708FA9F
:103580000820FEF7F7F9002211460920FEF700FA9D
:103590000920FEF7EFF9002211460A20FEF7F8F99C
:1035A0000A20FEF7E7F9002211461720FEF7F0F98E
:1035B0001720FEF7DFF906B0BDE8F08100100240E9
:1035C0000004004800080048094A126802600A68BE
:1035D00042600C2242614A8902614A6882600A891B
:1035E000C260898981614FF40041C161FFF794BDD8
:1035F0007C01002010B598B00024149415941C216F
:103600000DA81694FCF756FF34216846FCF752FFCC
:10361000224821490160AA21C0E901144FF47A71BE
:10362000C0E9031444618461FFF73EF908B1FDF776
:103630001CFA1494159414A918481694FEF73AFF2E
:1036400008B1FDF712FA0D940E940F941094119492
:10365000129400220DA911481394FFF7EDF808B158
:10366000FDF703FA00944FF40050CDE904400394B1
:103670000003CDE9084001940294069407940A944B
:103680000B94694605480C94FEF7C2FE002801D051
:10369000FDF7EBF918B010BD002C0140E404002048
:1036A00010B58AB00024079408941C216846099438
:1036B000FCF700FF1D484FF080410160AA21C0E9DE
:1036C00001146421C0E903148461FFF7C5F908B14E
:1036D000FDF7CBF9079407A914480994FEF7EAFE11
:1036E00008B1FDF7C2F9602000903220CDE9010455
:1036F000002269460D480494FFF71CF908B1FDF754
:10370000B4F9042269460948FFF714F908B1FDF736
:10371000ACF9082269460548FFF70CF908B1FDF736
:10372000A4F90248FFF724F80AB010BD30050020C4
:1037300010B58AB00024079408941C2168460994A7
:10374000FCF7B8FE1E481D490160AA21C0E901141A
:103750006421C0E903148461FFF77EF908B1FDF725
:1037600084F9079407A916480994FEF7A3FE08B147
:10377000FDF77BF9602000903220CDE901040022A2
:1037800069460F480494FFF7D5F808B1FDF76DF9C5
:10379000042269460A48FFF7CDF808B1FDF765F93C
:1037A000082269460648FFF7C5F808B1FDF75DF93C
:1037B0000348FEF7DDFF0AB010BD00000004004022
:1037C0007C050020184810B5164901604FF4E1311E
:1037D0004160002181600C22C160C0E90412816156
:1037E000C161016241628162FFF796FC08B1FDF799
:1037F0003CF900210C48FFF7D8FA08B1FDF735F97C
:1038000000210948FFF7ABFA08B1FDF72EF9064889
:10381000FFF706FA002803D0BDE81040FDF725B9F0
:1038200010BD000000480040C8050020FEE7FEE78C
:103830000148FEF78FBE0000E40400207047704787
:10384000FEF746B800B593B038216846FCF732FE63
:1038500014210EA8FCF72EFE0020FEF7CBF8022064
:10386000C1010391402104910421CDE90801009098
:103870005521CDE90A1007900C900D906846FEF78F
:10388000ADFB08B172B6FEE70F200E9003200F903B
:10389000002010901190129004210EA8FEF754FA07
:1038A000002801D072B6FEE713B000BD02480168DF
:1038B00041F470010160704788ED00E00148FEF7B7
:1038C00086BE0000300500200148FEF780BE0000E3
:1038D0007C0500202DE9F0430268264B264D274E3B
:1038E000274C4FF08049984207D0484505D0A84260
:1038F00003D0B04201D0A04203D122F070074A6841
:103900003A43204FDFF880C0DFF8808098420DD026
:1039100048450BD0A84209D0B04207D0A04205D0FC
:10392000B84203D0604501D0404503D122F4407530
:10393000CA682A434D6922F080022A4302608A68DD
:10394000C2620A688262984207D0A04205D0B8429B
:1039500003D0604501D0404501D1096901630121CF
:1039600041610169C90703D0016921F001010161C9
:10397000BDE8F083002C0140000400400008004036
:103980000034014000400140004401400048014033
:1039900010B501F01F030121046A99408C430462B1
:1039A000016A9A401143016210BD00002DE9F04305
:1039B000056A026A22F001020262436882691C4CB5
:1039C00025F0020522400C6822F0030214438A68A5
:1039D000194E2A43174D194FDFF864C0DFF8649081
:1039E000A84207D0B04205D0B84203D0604501D00C
:1039F000484506D122F00808CA6842EA080222F0C7
:103A00000402A84207D0B04205D0B84203D06045B6
:103A100001D0484505D14D6923F440731D438B699E
:103A20002B4343608461496841630262BDE8F083CF
:103A30008FFFFEFF002C0140003401400040014098
:103A40000044014000480140F0B5056A026A22F0D6
:103A50001002026242688369194C1B4E23400C68B5
:103A600023F4407343EA042425F020038D6843EADD
:103A70000513144DA84201D0B04206D1CF6823F0FF
:103A8000800343EA071323F04003A8420AD0B04260
:103A900008D00E4DA84205D00D4DA84202D00D4DC4
:103AA000A84207D14D6922F4406242EA85028D693D
:103AB00042EA850242608461496881630362F0BD25
:103AC000FF8FFFFE002C0140003401400040014008
:103AD0000044014000480140F0B5056A026A22F442
:103AE000807202624368C269194C1B4E22400C6806
:103AF00022F00302144325F400728D6842EA052285
:103B0000144DA84201D0B04206D1CF6822F4006221
:103B100042EA072222F48062A8420AD0B04208D0CA
:103B20000E4DA84205D00E4DA84202D00D4DA84220
:103B300007D14D6923F4405343EA05138D6943EAE5
:103B400005134360C4614968C1630262F0BD0000AF
:103B50008FFFFEFF002C0140003401400040014077
:103B60000044014000480140F0B5056A026A22F4B1
:103B7000805202624268C369194C1B4E23400C6894
:103B800023F4407343EA042425F400538D6843EA88
:103B90000533144DA84201D0B04206D1CF6823F4BA
:103BA000004343EA073323F48043A8420AD0B042DB
:103BB00008D00E4DA84205D00D4DA84202D00D4DA3
:103BC000A84207D14D6922F4404242EA85128D692C
:103BD00042EA85124260C461496801640362F0BD33
:103BE000FF8FFFFE002C01400034014000400140E7
:103BF000004401400048014030B5056A026A22F4E1
:103C0000803202624268036D114C23400C681C43F1
:103C100025F400330D8943EA05430E4DA8420BD02D
:103C20000D4DA84208D00D4DA84205D00C4DA8421C
:103C300002D00C4DA84204D14D6922F4803242EAF0
:103C400005224260046549688164036230BD00005A
:103C50008FFFFEFF002C0140003401400040014076
:103C6000004401400048014030B5046A026A22F471
:103C7000801202624268036D114D24F400142B403F
:103C80000D6843EA05230D8944EA05540D4DA84209
:103C90000BD00D4DA84208D00C4DA84205D00C4DBC
:103CA000A84202D00B4DA84204D14D6922F48022D3
:103CB00042EA8522426003654968C164046230BDFE
:103CC000FF8FFFFE002C0140003401400040014006
:103CD000004401400048014030B5416EB9B102686E
:103CE00091689268C1F342610B4B520F9C5CE500F6
:103CF00003F10804A25CB5FBF2F2A0F86A205A5C5A
:103D0000615CD200B2FBF1F1A0F8681030BD012176
:103D1000A0F86A10F8E70000C04A000890F82810E0
:103D2000090706D501684A68836B22F400421A43EA
:103D30004A6090F82810C90706D001684A68C36A2B
:103D400022F400321A434A6090F82810890706D5F9
:103D500001684A68036B22F480321A434A6090F883
:103D60002810490706D501684A68436B22F480226F
:103D70001A434A6090F82810C90606D501688A6877
:103D8000C36B22F480521A438A6090F82810890687
:103D900006D501688A68036C22F400521A438A60CF
:103DA00090F82810490611D501684A68436C22F43E
:103DB00080121A434A60416CB1F5801F06D1016838
:103DC0004A68836C22F4C0021A434A6090F82810B3
:103DD000090606D501684A68C06C22F40022024335
:103DE0004A6070472DE9F84300260446C0F8906009
:103DF000FDF768FD8046206800684FF02005000749
:103E00006FF07E4713D543460022290420460097D1
:103E100000F0B8FA58B1216851E8000F20F0800096
:103E200041E80002002AF6D1C4F8885021E0206859
:103E30000068400722D5434600224FF48001204607
:103E4000009700F09FFAC8B1216851E8000F20F4F4
:103E5000907041E80002002AF6D12068083050E84E
:103E6000001F21F0010140E80012002AF5D1C4F83A
:103E70008C5084F884600320BDE8F883C4F888502F
:103E8000C4F88C5044F86C6F666026760020F3E727
:103E900010B5806A0021A0F85E10FEF7AEFF10BDDD
:103EA00070B5846AD4F88800D4F88C502168896889
:103EB0004FF00006090606D5212804D1A4F8566063
:103EC000204600F0B9F820688068400606D5222D0B
:103ED00004D1A4F85E60204600F084F8D4F8900085
:103EE00040F01000C4F890002046FEF786FF70BD39
:103EF00010B50146806A096809684FF0000289061A
:103F00002DD4A0F85E20036853E8001F21F48071CF
:103F100043E80014002CF6D10168083151E8003F55
:103F200023F0010341E80034002CF5D10168083189
:103F300051E8003F23F0400341E80034002CF5D164
:103F40002021C0F88C10C16E012908D1016851E808
:103F5000003F23F0100341E80034002CF6D1026743
:103F6000C16E012902D0FFF78BF910BDB0F85C10CB
:103F7000FEF79AFE10BD10B5806A01210167C16E7F
:103F8000012902D0FFF77DF910BDB0F85C10490897
:103F9000FEF78AFE10BD10B50146806A09680968FF
:103FA000890616D40021A0F856100168083151E89E
:103FB000002F22F0800241E80023002BF5D1026897
:103FC00052E8001F41F0400142E80013002BF6D1F7
:103FD00010BDFFF79FF910BD10B5806AFFF79BF980
:103FE00010BD000010B5026852E8001F21F4907166
:103FF00042E80013002BF6D10E4B0268083252E85B
:10400000001F194042E80014002CF6D1C16E0129AE
:1040100008D1016851E8002F22F0100241E8002386
:10402000002BF6D12021C0F88C100021C166416719
:1040300010BD0000FEFFFFEF026852E8001F21F0F4
:10404000C00142E80013002BF6D10168083151E8A5
:10405000002F22F4000241E80023002BF5D120219B
:10406000C0F88810704700002DE9F041044601684F
:1040700080682269E3691043626900251A4310438E
:10408000DFF82CC20A688B4B1A4002430A60206892
:104090004168E26821F44051114341602168A06900
:1040A000614501D0226A10438A68834B1A4002435B
:1040B0008A602068C16A626A21F00F011143C162FF
:1040C0007E4923687E488B420DD1D0F8880010F0DD
:1040D000030006D0012855D0022842D003283FD142
:1040E00052E001203DE077498B420BD1D0F88800A7
:1040F00010F00C0035D0042833D0082840D00C280C
:104100002ED141E070498B420BD1D0F8880010F0DD
:10411000300026D0102835D0202831D030281FD1AB
:1041200032E06A498B420BD1D0F8880010F0C00011
:1041300017D0402826D0802822D0C02810D123E0D4
:1041400063450DD1D0F8880010F4406009D0B0F577
:10415000806F17D0B0F5006F12D0B0F5406F13D05C
:1041600010205B495B4F00264FF4004263453BD172
:1041700060B1022813D004280BD0082872D10DE0BA
:104180000220EEE70420ECE70820EAE7FDF7CAFE8C
:1041900001E0FDF7EBFE010001D17CE01146606A11
:1041A00037F810206768B1FBF2F007EB4703834252
:1041B00070D8B0EB073F6DD8002308461946FCF7CE
:1041C0009BF8090241EA1061020278081018714157
:1041D0003A460023FCF790F83F4AA0F5407191421F
:1041E00058D82168C86056E0E3694FF6EF789342EB
:1041F0002CD109284ED2DFE800F00508114D0D4DF5
:104200004D4D1000FDF78EFE01E0FDF79DFE010013
:1042100004D140E0FDF7AAFEF9E71146606A37F8DD
:104220001000B1FBF0F04100606801EB5001B1FB00
:10423000F0F0A0F1100141452CD84FF6F07101408B
:10424000C0F3420001432068C16024E0092821D264
:10425000DFE800F0050912200E2020201100FDF7F4
:1042600061FE02E016E0FDF76FFE010004D112E0EE
:10427000FDF77CFEF9E71146606A37F81000B1FBE4
:10428000F0F1606801EB5001B1FBF0F0A0F110011A
:1042900041450AD901250120A4F86A0024F8680FD5
:1042A0002846E6602661BDE8F08180B299E700000B
:1042B00000800040F369FFCFFFF4FF110038014098
:1042C000001002400044004000480040004C004004
:1042D0000024F400A84A0008FFFC0F0070B58165B7
:1042E000A0F85C2000210446C0F890102220C4F8F9
:1042F0008C00D4F88000F0B11F4BC362D4F880303A
:104300001E481863D4F880301D485863D4F88000E4
:1043100013468163A56D21682A462431D4F88000B4
:10432000FDF722F938B11020C4F890002020C4F81D
:104330008C00012070BD206940B1216851E8000F58
:1043400040F4807041E80002002AF6D1206808306D
:1043500050E8001F41F0010140E80012002AF5D1A9
:104360002068083050E8001F41F0400140E800128A
:10437000002AF5D1002070BDF13E0008773F00080B
:10438000A13E00082DE9F047994617460D46044620
:104390004FF00008089E33E0701C31D0FDF792FA10
:1043A000A0EB0900B04218D8BEB1206801684907E7
:1043B00026D5802D24D0402D22D0C169C9430907BC
:1043C0000DD4082505622046FFF70CFEC4F8905076
:1043D00084F884800120BDE8F0870320FBE7C069F2
:1043E000C04300050CD421684FF4006008622046E9
:1043F000FFF7F8FD2020C4F8900084F88480ECE7F3
:104400002068C06935EA000004D00020B842C3D05B
:104410000020E0E70120F9E710B5FEF77DFFBDE8D9
:1044200010400148FEF7EABCC8050020FEE7090776
:10443000090E002804DB00F1E02080F8001470472A
:1044400000F00F0000F1E02080F8141D704700001C
:10445000002210B50B4B1146104600BF33F8104038
:10446000224403EB4004801C64880A282144F5DBC5
:104470000520B2FBF0F2B1FBF0F0034B0349DA6028
:10448000C86010BDA00100200000002078000020BE
:104490002DE9F0410025454F04462E46206A00EBE9
:1044A000400007EB800050F82500012812D0401C86
:1044B00004EB8500816E3AD0002964D0042966D0CF
:1044C000082968D00C296AD01029C16D09686AD002
:1044D000CE640FE004EB8500816E91B1042915D004
:1044E000082918D00C291BD0C26D10292169126827
:1044F0001BD0D16404EB4501406CB1F8561000228A
:1045000028E0C26D216912685163F3E7C26D216929
:1045100012689163EEE7C26D21691268D163E9E721
:10452000C26D216912681164E4E79164E2E7C1B1E8
:1045300004291AD008291CD00C291ED01029C16DBD
:1045400009681ED0C1F84C6004EB4501406CB1F81D
:1045500056100122FDF7B1F96D1C032D9EDBBDE85D
:10456000F081C16D09684E63EEE7C16D09688E6325
:10457000EAE7C16D0968CE63E6E7C16D09680E64BC
:10458000E2E78E64E0E7C16D09684E63B2E7C16D92
:1045900009688E63AEE7C16D0968CE63AAE7C16D95
:1045A00009680E64A6E78E64A4E70000544A000878
:1045B00010EE101A00F0FCB80A2202490248FCF77B
:1045C0002DBE0000A00100201804002010B58C189A
:1045D00001EB820124790A6964F30F23896B03607C
:1045E000C0E9012110BD0000FDF77AF9FFF72AF9B3
:1045F000FEF764FFFEF734FFFFF752F8FEF7FAFF0D
:10460000FEF7D8FEFFF794F8FFF7DCF80020FCF780
:10461000A1F801210020FCF7D3F809484FF4E1315B
:1046200001600021416001814181818101460020BA
:10463000FCF772F808B172B6FEE700F051F8FEE739
:104640000804002010B50446816EC06DFEF768FABC
:10465000E16E206EFEF764FA216F606EBDE81040D7
:10466000FEF75EBA014800F073B9000000000020B8
:1046700010B5FDF727F900EE100A134C1349B8EEF8
:10468000400AD4ED010A30EE600A10EE100A8842AA
:1046900015DBFDF717F900EE100A20214FF09040CE
:1046A000B8EE400A84ED010AFDF7FFF8E16808481A
:1046B000012905D041F2121101600120E06010BD16
:1046C00000210160E16010BDF00000200000964371
:1046D0000C010020014800F03BB9000078000020E8
:1046E0000E48FFF7AFFF0E48FFF7ACFFFFF764FF80
:1046F000FFF79EF800F098F900F0FCF8074800F08A
:1047000027F9074800F024F90448FFF7C1FE0448E0
:10471000FFF7BEFEFFF79CFEF6E70000000000205A
:104720007800002000B5C3B000218DF809118DF884
:104730000A1140F20B126946FBF755FE43B000BD6B
:10474000F0B491F80A31A3B191F809210525541C60
:10475000B4FBF5F605FB164481F809415B1E81F8B0
:104760000A31352312FB03F2F0BC11441A46FBF761
:104770003ABEF0BC00F072B810B5044690F80A01D9
:10478000052801D3002010BD94F80921104405220A
:10479000B0FBF2F302FB1300352200FB0240FBF7F3
:1047A00022FE94F80A01401C84F80A01012010BD81
:1047B00030B58FB005460C46684600F01EF9200E55
:1047C0008DF83400200C8DF83500200A8DF8360065
:1047D0008DF8374004220DA9684600F0FAF833221C
:1047E00069462846FBF7FFFD0FB030BD50F8801F2B
:1047F00009680A6822F001020A6002683221126820
:104800005160016809680A6842F001020A6050F8C4
:10481000800C016841F010010160704770B59CB0D8
:1048200006467B208DF800000D460EA800F0E5F846
:104830006C4633220EA9601CFBF7D5FD95F832209B
:104840002946601C00F0C5F87D208DF83400352223
:1048500069463046FBF7C7FD1CB070BD00B58FB090
:1048600000218DF8001035226946FBF7BCFD0FB022
:1048700000BD30B50C4691F832108DB005460229C6
:1048800006D320787B2803D1601E085C7D2804D0E5
:104890002846FFF7E3FF0DB030BD684600F0ADF8E5
:1048A00094F83200611C801EC2B2684600F091F894
:1048B00069462846FFF7B2FFEDE730B58DB00546F3
:1048C0000C46684600F099F82178684600F0A0F898
:1048D00094F83320611C684600F07BF894F834109B
:1048E000684600F095F8332269462846FBF77BFDC1
:1048F0000DB030BD10B5C4B032211248FBF7B8FD81
:104900006846FFF70FFF0F4840F20B142246694636
:104910003230FBF768FD6846FFF704FF2246694620
:104920000948FBF760FD09480068016841F0100183
:10493000016044B03222BDE8104002490348FEF74E
:104940008EB90000B4010020F1020020C80500204B
:104950002DE9F04104468068401CA060218E606A09
:10496000FCF79EFF8500618EA06AFCF799FF45EA7F
:104970004005A18EE06AFCF793FF054394F81CC044
:10498000002001210522042303260227BCF1010F88
:104990000AD0BCF1000F10D1072D0ED2DFE805F0D0
:1049A0000D1713150F0C1100072D06D2DFE805F0C7
:1049B000050904070D0B0F002062BDE8F08121629C
:1049C000FBE72762F9E72662F7E72362F5E7226251
:1049D000F3E770B5044690F8320015464219322AC2
:1049E00001D9002070BD20442A46FBF7FCFC14F8D6
:1049F000320F28442070012070BD00B58DB0002119
:104A00008DF8321033226946FBF7EDFC0DB000BD86
:104A100090F83220322A01D300207047531C80F8CE
:104A200032308154012070470EB500220449684697
:104A3000FFF7CCFD03489DE80E0080E80E000EBD98
:104A400010010020FC0300204FF04070E1EE100A3E
:104A50007047000001000000FFFFFFFF00000000A2
:104A60000100000000000000FFFFFFFF0000000049
:104A700001000000FFFFFFFFFFFFFFFF010000003C
:104A800000000000FFFFFFFF000000000100000029
:104A900000000000FFFFFFFF0100000028002000D1
:104AA000002000000D0000060100020004000600C6
:104AB00008000A000C0010002000400080000001E7
:104AC00001010103070100000804020408010101BB
:104AD00000000000000000000102030406070809AE
:104AE0000000000001020304084B00080000002041
:104AF000A001000014020008844B0008A00100205F
:104B0000700C0000700200080110F20F1AFF011172
:104B100012086A480412021A0407513A4804CA04E7
:104B20000412012202120412201240148030056A7D
:104B30002004413204593C0111A9780A1101782955
:104B4000513919A978992012402A101F299D1B104C
:104B50007C706904091678494B210314121139C677
:104B6000792829045A0304011C29282938091E28F8
:104B700039C029B8128014405908AA08FC9A109C20
:044B8000111324F4F5
:04000005080001D915
:00000001FF
