:020000040800F2
:10000000100A002079020008AB310008312D0008E9
:10001000A9310008BB050008F93D000800000000F8
:10002000000000000000000000000000AF310008E8
:10003000EF06000800000000AD310008B1310008F3
:10004000930200089302000893020008930200083C
:10005000930200089302000893020008930200082C
:100060009302000893020008930200082906000882
:1000700035060008410600089302000893020008B4
:100080009302000800000000930200089302000899
:1000900093020008930200089302000893020008EC
:1000A0009302000893020008930200082D32000812
:1000B00041320008930200089302000893020008EE
:1000C00093020008930200089302000893020008BC
:1000D000930200089302000893020008ED3D000817
:1000E000F10600089302000893020008930200083A
:1000F0009302000893020008930200080000000029
:1001000000000000930200080000000093020008B5
:100110009302000800000000930200089302000808
:10012000930200089302000893020008930200085B
:100130009302000800000000000000009302000885
:100140009302000893020008000000000000000075
:10015000000000000000000000000000000000009F
:1001600000000000000000000000000093020008F2
:1001700093020008000000000000000000000000E2
:1001800000000000930200080000000000000000D2
:10019000000000000000000000000000000000005F
:1001A0000000000000000000930200089302000815
:1001B0009302000893020008930200080000000068
:1001C0000000000093020008000000000000000092
:1001D000930200089302000800F002F800F03CF8D7
:1001E0000AA090E8000C82448344AAF10107DA4592
:1001F00001D100F031F8AFF2090EBAE80F0013F0A8
:10020000010F18BFFB1A43F001031847DC3C000044
:10021000FC3C0000103A24BF78C878C1FAD85207D5
:1002200024BF30C830C144BF04680C607047000070
:100230000023002400250026103A28BF78C1FBD8EF
:10024000520728BF30C148BF0B6070471FB503F08D
:100250001FFE1FBD10B510BD00F0CFF81146FFF70F
:10026000F5FF03F0DBFD00F0EDF803B4FFF7F2FF5C
:1002700003BC00F0F5F80000094880470948004732
:10028000FEE7FEE7FEE7FEE7FEE7FEE7FEE7FEE746
:10029000FEE7FEE704480549054A064B70470000A3
:1002A0001D320008D901000810040020100A0020A7
:1002B000100600201006002053EA020C00F06980AE
:1002C0002DE9F04B4FF00006002B1FBFB3FA83F56A
:1002D00003FA05F424FA05F65E4012BF1643B2FA9B
:1002E00082F502FA05F4C5F120051EBF22FA05FCCD
:1002F00044EA0C04203556EA044C4FEA144418BF73
:10030000641C4FF000084FF00009904271EB030CA1
:1003100039D3002919BFB1FA81F701FA07F6B0FA0B
:1003200080F700FA07F6C7F120071EBF20FA07FC86
:1003300046EA0C062037B6FBF4FCA7EB0507103F96
:1003400007F01F0BCBF120060CFA0BFB2CFA06F67C
:1003500044BFB3460026202FA4BF5E464FF0000BDB
:100360005BEA060C08BF4FF0010B19EB0B09ABFB66
:10037000027C48EB0608C01B06FB02CC0BFB03CC3F
:1003800071EB0C01C1E70B46024641464846BDE809
:10039000F08B13B54FF000004FF00001AFF3008079
:1003A000BDE81C4070474FF0000200B5134694466C
:1003B0009646203922BFA0E80C50A0E80C50B1F1BD
:1003C0002001BFF4F7AF090728BFA0E80C5048BFD1
:1003D0000CC05DF804EB890028BF40F8042B08BF6F
:1003E000704748BF20F8022B11F0804F18BF00F86B
:1003F000012B7047704770477047754600F02CF826
:10040000AE4605006946534620F00700854618B001
:1004100020B5FFF73FFFBDE820404FF000064FF04A
:1004200000074FF000084FF0000B21F00701AC4629
:10043000ACE8C009ACE8C009ACE8C009ACE8C00948
:100440008D46704710B50446AFF300802046BDE8E6
:100450001040FFF70ABF000000487047AC030020BF
:1004600001491820ABBEFEE72600020070470000DD
:1004700070B500250E46012801D9AD1E11E000EB34
:10048000800101EB4011084800EB8100044600F0B8
:1004900095F82046314602F07DFD10B16FF0030063
:1004A00070BD284670BD00001803002070B50446DA
:1004B000114886B0C16C41F00101C164C06C0F4E9F
:1004C00000F00100059036F8140000900120019022
:1004D000002002900A4D0320039055F8240069463D
:1004E00000F08AFE36F8141055F82400002200F0BF
:1004F000B4FF06B0002070BD001002409E3E000810
:100500002400002070470000024901EBC00000F009
:1005100055BE00003800002030B50446214887B0A1
:10052000C26C42F00402C264C06C00F0040005908A
:100530001D4830F8140000900220029003901B48E0
:1005400050F8240041B34FF488110191694600F03E
:1005500053FE1548001D50F824101448103000EBCD
:10056000C400054600F024FE10480021083050F871
:100570002420284600F038FE0C480B4D0C302D1F6F
:1005800050F824102857002200F0D2FF285700F01E
:10059000C1FF07B0002030BD00210191694600F085
:1005A0002BFEF6E700100240A03E000828000020C5
:1005B00010B50020FFF7A6FF10BDFEE770B5194883
:1005C00086B0C16C41F00101C164C16C01F0010150
:1005D0000591C16C41F00101C164C16C01F00101E0
:1005E0000591C16D41F00101C165C06D022400F0AB
:1005F000010005900420CDE9000402AA01200C2589
:1006000082E831004FF090466946304600F0F4FD34
:100610000820CDE9000469460495304600F0ECFD61
:1006200006B070BD00100240014800F0ACBC0000F4
:10063000CC000020014800F0A6BC000058020020B9
:10064000014800F0A0BC0000B80200200D4902687B
:100650008A4201D20C4901E00B492031D2B2142365
:10066000083AB2FBF3F2436C02F01F0223F00303DB
:100670001944816404498031C164012191400165BC
:100680007047000008040240000802400179074A50
:1006900002EB81024265054A4432491E826501F03F
:1006A0001F0201219140C16570470000FC08024013
:1006B00030B5D0E913456560446D14B1D0E91645F5
:1006C000656090F8444004F01F050124AC40056CBF
:1006D0006C60046863608368102B036803D09960C2
:1006E0000068C26030BD9A600068C16030BD70476C
:1006F00010B50020FFF708FFBDE8104003F0BABBBB
:1007000072B6FEE72DE9F047044690F858009CB019
:100710000E464FF00009012815D0012084F858003A
:1007200000251795189520684FF0A04840450ED138
:10073000284F0097384602F00AFB8246206802F0F4
:1007400006FB60B10EE002201CB0BDE8F087E06D52
:1007500040F02000E06584F858500120F4E7BAF139
:10076000000F09D0E06D40F02000E0654FF0010976
:1007700084F858504846E7E71748326840F61F713A
:10078000002A826822F4604216D094F8383042EA97
:10079000433273681A438260D8F80820BB6802F0BD
:1007A000010203F001031A43E2D1B36832681A432D
:1007B00083688B431A430BE08260D8F80820BB683B
:1007C00002F0010203F001031A43D1D182688A4387
:1007D0008260CDE700010050000300502DE9F84F82
:1007E00000270446009790F85800DFF8E0930D4684
:1007F000B846012811D0012684F85860206802F01C
:10080000A2FA60B1E06D40F02000E0655FF0010702
:1008100084F858803846BDE8F88F0220FBE7D5E918
:1008200000210C23206803EA91131844036B01F0A4
:100830001F014FF01F0C0CFA01FCC2F3846223EA83
:100840000C038A4013430363206802F07CFA82465B
:10085000206802F074FA5AEA00003CD1AA682968BC
:100860002068B2F1004F37D002F075FA2068416974
:1008700021F00041416120686969C268C2F3C10288
:10088000520091402A69042A31D000EB82002B6883
:10089000026EDFF83CC303F0F84302EA0C020B439C
:1008A0001A4342F00041016620682A69A96900EBF9
:1008B0008200026E22F080720A430266297F22685B
:1008C0002869012910D0002102EB8000026E22F07D
:1008D00000720A4302667DE0002202F03CFA2068C2
:1008E000416941F00041C5E74FF00071ECE700219C
:1008F00002F01FFA400320684FF0000172D002F0AE
:1009000018FA90FAA0F0B0FA80F1286842036ED08D
:1009100090FAA0F0B0FA80F0814204D10022114692
:10092000206802F027FA0121206802F002FA400351
:1009300020684FF001015DD002F0FBF990FAA0F0C1
:10094000B0FA80F12868420359D090FAA0F0B0FACA
:1009500080F0814204D100220121206802F00AFACD
:100960000221206802F0E5F9400320684FF00201FF
:1009700048D002F0DEF990FAA0F0B0FA80F12868D1
:10098000420344D090FAA0F0B0FA80F0814204D142
:1009900000220221206802F0EDF90321206802F014
:1009A000C8F9400320684FF0030133D002F0C1F9C9
:1009B00090FAA0F0B0FA80F1286842032FD090FAA4
:1009C000A0F0B0FA80F0814204D100220321206817
:1009D00002F0D0F92068816811F0010F22D0ACE05C
:1009E00000E004E002F0A5F9C0F384618DE7C0F3F4
:1009F000846091E702F09DF9C0F38461A2E7C0F33F
:100A00008460A6E702F095F9C0F38461B7E7C0F30C
:100A10008460BBE702F08DF9C0F38461CCE7C0F3DA
:100A20008460D0E72A7B296850F8B03FC1F3120CEC
:100A300023EA0C0302F0180C664A22FA0CF20A4070
:100A400013430360E968494577D1286841031CD006
:100A500090FAA0F1B1FA81F1491C01F01F010929B6
:100A60004FEA403132D8002912D000BF90FAA0F1ED
:100A7000B1FA81F101F1010101F01F0106FA01F65D
:100A800009D100BFC0F3846109E0C0F38461E3E7EA
:100A9000C0F38461EEE790FAA0F1B1FA81F101F1BF
:100AA000010101F01F0146EA816102D1C0F38460B7
:100AB00003E090FAA0F0B0FA80F000F1010000F03D
:100AC0001F0000EB400041EA005132E000290ED047
:100AD00090FAA0F1B1FA81F101F1010101F01F01D9
:100AE00006FA01F606D100BFC0F3846106E0C0F348
:100AF0008461F1E790FAA0F1B1FA81F101F101010D
:100B000001F01F0146EA816102D1C0F3846003E075
:100B100090FAA0F0B0FA80F000F1010000F01F00A0
:100B20002D4A00EB400002EB005041EA000141F089
:100B30000071AA68206802F00EF928482A6802426B
:100B40003FF466AE26488168264B01F0E0719A4278
:100B500002D0254B9A421CD10B021AD42268B2F162
:100B6000A04F7FF455AE826841F4000122F0E0729C
:100B70000A4382601D481E490068B0FBF1F0401C2A
:100B800000EB4000800000E0401E00900028FBD1F8
:100B90003EE6184D184BAA4207D1CD0105D4226874
:100BA0009A42F5D041F0807109E0144DAA42EFD18C
:100BB0004A02EDD422689A42EAD041F48001826868
:100BC00022F0E0720A43826022E6000000007F40CB
:100BD00000F0FF03FFFF0700000020FE0000088078
:100BE00000030050000021C31000C0904C00002002
:100BF000400D0300000052C700010050000084CBEC
:100C0000F8B54FF0000504002E46009502D0E06DC7
:100C100010B107E00120F8BD204600F0EBF8266691
:100C200084F8586020688168C1F3407119B1816807
:100C3000684A1140816020688168C1F3007189B9F8
:100C40008168654A114041F0805181606348644980
:100C50000068B0FBF1F04000801C00E0401E0090F6
:100C60000028FBD120688168C1F3007141B9E16DB2
:100C700041F01001E165216E41F00101216601257D
:100C800002F061F8E16DC90600D430B1E06D40F0CA
:100C90001000E06501252846F8BDE06D20F4807065
:100CA00040F00200E0652068806810F0010F11D16B
:100CB0004FF0A04080684B4900F00100896801F0C6
:100CC0000101084306D148486168826822F47C1219
:100CD0000A438260E168E06B627F0843A16841EAF1
:100CE0004231084394F8241040EA0140012904D11C
:100CF000218D3E4A02EB41410843E16A29B101F4EA
:100D00007871226B014342EA01002268D168384BB6
:100D100019400143D16020680169626B21F0406194
:100D200011430161206802F00AF870BB207F94F83B
:100D30003810800340EA41022168C86844F2020387
:100D400098431043C86020690028206801690AD0D0
:100D500041F480310161206850F8C01F22696FF3AF
:100D60000D01114307E021F480310161206850F842
:100D7000C01F6FF30D01016094F8400001280CD0F2
:100D80002068016921F00101016160690128206882
:100D9000016B21F00F0111D013E0D4E911010843D8
:100DA000D4E913121143084321680A6940F2FC7325
:100DB0009A43104340F001000861E6E7226A521EA0
:100DC00011430163E06D20F0020040F00100E06596
:100DD00061E70000C0FFFF5FC0FFFF7F4C00002005
:100DE000400D030000010050000300500000FEFF12
:100DF0000740F0FF70B598B00546142111A8FFF721
:100E0000D2FA44216846FFF7CEFA2868B0F1A04F25
:100E10003ED14FF40040009080030F90684600F0F0
:100E20001FFC08B1FFF76CFC1A49C86C40F4005075
:100E3000C864C86C00F400501690C86C40F0020002
:100E4000C864C86C002600F00200169040F603004B
:100E500011900320CDE9120611A90F4800F0CCF93A
:100E60000F4C0E4820600520C4E901068020C4E92B
:100E70000360400060618000A0612020C4E9070693
:100E8000204600F0DDF808B1FFF73AFC6C65A5627A
:100E900018B070BD00100240000400480800024075
:100EA000CC00002010B590F8253000210122022B43
:100EB00003D00421C163012122E003681C6824F0EF
:100EC0000E041C60836C1C6824F480741C6003682E
:100ED0001C6824F001041C6090F84430046C03F09A
:100EE0001F0302FA03F36360D0E913345C60436DBF
:100EF00033B11C6824F480741C60D0E916345C6043
:100F000080F82520002280F82420084610BD70B506
:100F100090F82520002401212346022A07D004222C
:100F2000C26380F8251080F82430012429E002688B
:100F3000156825F00E0515600268156825F0010595
:100F40001560826C156825F48075156090F8442052
:100F5000056C02F01F0201FA02F26A60D0E9132563
:100F60005560426D32B1156825F480751560D0E981
:100F70001625556080F8251080F82430816B01B16A
:100F80008847204670BDF0B4016C0C6801680D689C
:100F900090F8442002F01F06042202FA06F32342CE
:100FA00011D06B070FD50B689B0603D40B6823F099
:100FB00004030B6090F8441001F01F018A40016C9B
:100FC0004A60016B1DE0022303FA06F727424FF047
:100FD000000C4FF0010218D0AF0716D50C68A4061C
:100FE00005D40C6824F00A040C6080F8252090F8E1
:100FF000441001F01F018B40016C4B6080F824C04D
:10100000C16A00291AD0F0BC08470823B340234224
:1010100014D02B0712D50B6823F00E030B6090F849
:101020004410036C01F01F0102FA01F15960C26320
:1010300080F8252080F824C0416BE2E7F0BC7047BF
:1010400070B504000CD02B4A21681420914209D2BB
:10105000294A0A44B2FBF0F08000606427480AE0A5
:10106000012070BD234A52420A44B2FBF0F08000D6
:101070006064204808382064022084F825000A684B
:1010800047F6F0708243D4E902031843D4E90435EB
:101090002B431843A3691843E3691843236A184391
:1010A000104308602046FFF7D1FAA0680025B0F58C
:1010B000804F00D16560A16C20790860D4E91301EC
:1010C00041606068401E032808D82046FFF7DEFA1A
:1010D000606D0560D4E91601416002E06565A565B3
:1010E000E565E563012084F8250084F8245000209C
:1010F00070BD000008040240F8FFFDBF0000024080
:1011000070B5044690F82400002501280CD0012079
:1011100084F8240094F825600020012E06D084F87D
:1011200024000225284670BD022070BD022684F8E6
:101130002560E0632068066826F001060660204608
:10114000FFF7B6FA206B00282068016802D041F052
:101150000E0106E021F0040101602068016841F001
:101160000A010160A06C0168C90303D5016841F45C
:1011700080710160606D18B1016841F48071016097
:101180002068016841F001010160CBE770B50446B9
:1011900000F068F90546601C02D004484068044429
:1011A00000F060F9401BA042FAD370BD400000205F
:1011B00010B10160002070470120704702680123D0
:1011C000C2F3004102F01F029340064A02EB4111B4
:1011D0000A681A4204D00B604068002800D000471B
:1011E00070470000140401400346002011B158600C
:1011F000012070475A6070472DE9F04FDFF82092C8
:10120000002301260324A9F1040B85B00F2709F15F
:10121000040AABF1040EFAE006FA03F52A407CD08A
:1012200091F804C00CF0030CBCF1010F02D0BCF12A
:10123000020F26D1D0F808C0CDF800C04FEA430C09
:1012400004FA0CF8CDF810C0DDF800C02CEA080C48
:10125000CDF800C0D1F80C80DDF810C008FA0CF809
:10126000DDF800C048EA0C08C0F80880D0F804C0D7
:101270002CEA050C0D79C5F300159D4045EA0C05D7
:1012800045600D79ED43AD070ED0C5684FEA4308C0
:1012900004FA08FC25EA0C05D1F808C00CFA08FC91
:1012A0004CEA050CC0F80CC00D7905F00305022DC1
:1012B00016D1DD0800EB850CCDF808C0DCF82080E5
:1012C0005D074FEAD56C07FA0CF528EA05080D69A9
:1012D00005FA0CF5DDF808C045EA0805CCF8205001
:1012E00005684FEA430CCDF808C004FA0CFC25EA67
:1012F0000C0591F804C00CF00308DDF808C008FAEA
:101300000CF848EA0508C0F800804D6815F4403F25
:101310007CD0444DD5F860C000E077E04CF0010C83
:10132000C5F860C02D6E23F0030C05F00105009593
:101330003D4D65440295AD684FEA837C4FEA1C78C9
:1013400007FA08FC25EA0C05B0F1904F06D0DFF84B
:10135000DCC0604505D14FF0010C20E04FF0000CDF
:101360001DE0DFF8CCC0604502D14FF0020C16E062
:10137000DFF8C0C0604502D14FF0030C0FE0DFF88A
:10138000B8C0604502D14FF0040C08E0DFF8ACC0F3
:10139000604502D14FF0050C01E04FF0060C0CFA4D
:1013A00008FC4CEA050C029DC5F808C0D9F80050AD
:1013B000CC46D1F8048095435FEAC82800D5154390
:1013C000CCF80050DAF80050D446D1F804809543A8
:1013D0005FEA882800D51543CCF80050DBF80050B0
:1013E000DC46D1F8048095435FEA883800D5154380
:1013F000CCF80050DEF80050F446D1F80480954354
:101400005FEAC83800D51543CCF800505B1C0A6869
:1014100032FA03F57FF400AF05B0BDE8F08F0000AD
:101420000804014000100240000001400004004890
:1014300000080048000C0048001000480014004854
:101440000069084000D001207047426921EA020388
:101450000A4043EA0241816170470AB181617047E5
:10146000816270470148806870470000400000209A
:101470000248816842681144816070474000002042
:1014800010B50024032000F073F8002000F008F8E5
:1014900008B1012401E000F025F8204610BD00004D
:1014A00070B50E4E05460024706898B14FF47A71FD
:1014B000B1FBF0F00A490968B1FBF0F000F060FD03
:1014C00040B9102D06D200222946501E00F030F8F7
:1014D000356000E00124204670BD0000400000207F
:1014E0004C0000200A4882B0016E41F00101016603
:1014F000016E01F001010091816D41F08051816523
:10150000806D00F08050009002B000F0A1B80000A3
:1015100000100240002809DB00F01F020121914069
:101520004009800000F1E020C0F800117047000081
:10153000F0B40E4B1B680C46C3F30223C3F107053E
:10154000042D00D90425191D072901D2002300E02C
:10155000DB1E012606FA05F1491E214099409E40F6
:10156000761E16403143F0BC02F047BC0CED00E0A3
:10157000064900F0070208684FF6FF03184040EAEA
:101580000220034A10430860704700000CED00E0A1
:101590000000FA052B492C4B0A6832214A432B499B
:1015A00040B1B0F5007F086829D020F4C06040F455
:1015B00080602CE00868C0F34120022804D051F874
:1015C000800F20F4807022E0D1F8800020F4807039
:1015D000C1F88000086820F4C06040F40070086022
:1015E000B2FBF3F0401C00E0401E4A69520501D5F1
:1015F0000028F9D1486940050AD503207047C0F397
:101600004120022806D051F8800F40F48070086015
:1016100000207047D1F8800040F48070C1F880004D
:10162000086820F4C06040F400700860B2FBF3F07A
:10163000401C00E0401E4A695205DBD50028F9D164
:10164000D8E700004C00002040420F00007000402E
:101650000248816841F48041816070470070004019
:101660002DE9F8430446006800269D4D00035ED531
:10167000A86D0027C00008D4A86D40F08050A86570
:10168000A86D012700F080500090DFF85892D9F83B
:10169000001041F48071C9F80010FFF7E3FE8046A6
:1016A00006E000BFFFF7DEFEA0EB080002282BD803
:1016B000D9F80000C005F5D5D5F8900010F44070B9
:1016C00014D0216C814211D0D5F89000D5F890103B
:1016D00020F4407041F48031C5F89010D5F8901096
:1016E00021F48031C5F89010C5F89000C00711D0E2
:1016F000FFF7B8FE804641F2883907E0FFF7B2FEF7
:10170000A0EB0801494501D903260BE0D5F890006C
:101710008007F3D5D5F89000216C20F44070084381
:10172000C5F890001FB1A86D20F08050A865207802
:10173000C00707D0D5F88800616820F0030008438F
:10174000C5F888002078800707D5D5F88800A168FB
:1017500020F00C000843C5F888002078400707D522
:10176000D5F88800E16820F030000843C5F888000B
:101770002078000707D5D5F88800216920F0C0003F
:101780000843C5F888002078800607D5D5F888007A
:10179000616920F440600843C5F88800207840065D
:1017A00007D5D5F88800A16920F440500843C5F852
:1017B00088002078000607D5D5F88800E16920F474
:1017C00040400843C5F888002088C00507D5D5F8F3
:1017D0008800216A20F440300843C5F8880020883A
:1017E000800507D5D5F88800616A20F440200843B9
:1017F000C5F88800208840050FD5D5F88800A16A73
:1018000020F440100843C5F88800A06AB0F5801F96
:1018100003D1E86840F48010E860208800050FD507
:10182000D5F88800E16A20F440000843C5F8880034
:10183000E06AB0F5800F03D1E86840F48010E860FA
:101840002088C0040FD5D5F88800216B20F04070A7
:101850000843C5F88800206BB0F1807F03D1E868A9
:1018600040F48010E86020884FF0006180040ED5BD
:10187000D5F88800626B20F040601043C5F88800FE
:10188000606B884203D1E86840F48010E8602088EB
:1018900040040ED5D5F88800A26B20F040601043BC
:1018A000C5F88800A06B884203D1E86840F4801036
:1018B000E860208800040FD5D5F88800E16B20F09F
:1018C00040500843C5F88800E06BB0F1805F03D159
:1018D000E86840F48030E8603046BDE8F8830000F6
:1018E00000100240007000402DE9F0470E46050050
:1018F0004FF0000725D0DFF8AC81D8F8000000F0E9
:101900000F00B0420CD2D8F8001021F00F01314383
:10191000C8F80010D8F8000000F00F00B04210D155
:101920002968614CC80741F2883A5AD06868DFF8E4
:101930007C91032808D0022820682DD0400500287B
:101940002CDB0120BDE8F08720688001F9D5E06834
:1019500000F00302E068C0F30310401C032A19D012
:10196000534A00BFB2FBF0F0E268C2F306225043D4
:10197000E268C2F34162521C5200B0FBF2F04845EB
:1019800017D9A06810F0F00F0CD0880711D5A868FF
:1019900040B10EE0474AE5E78003D0E700F0B6F833
:1019A000484506D9A06820F0F00040F08000A06013
:1019B0008027A068696820F003000843A060FFF753
:1019C00051FD814606E000BFFFF74CFDA0EB090189
:1019D00051453AD8A068696800F00C00B0EB810F5F
:1019E000F2D12868810714D5400703D5A06840F4D8
:1019F000E060A0602878000705D5A06820F460505A
:101A000040F4E060A060A068A96820F0F0000843FE
:101A100004E0802F03D1A06820F0F000A060D8F887
:101A20000010404601F00F01B14216D9016821F0C3
:101A30000F0131430160FFF715FD074607E000BFC6
:101A4000FFF710FDC11B514501D903207AE7D8F8F3
:101A5000000000F00F00B042F2D12878400705D511
:101A6000A068E96820F4E0600843A06028780007D7
:101A700006D5A068296920F4605040EAC100A06042
:101A800000F044F8A1680C4AC1F30311515C01F065
:101A90001F01C8400949086009480068BDE8F047CF
:101AA000FFF7FEBC002002400010024000B4C40456
:101AB0000024F40000366E01D03E00084C000020E7
:101AC000400000200548064900688968054AC1F3BE
:101AD0000221515C01F01F01C84070474C000020FA
:101AE00000100240E03E0008054806490068896889
:101AF000054AC1F3C221515C01F01F01C840704783
:101B00004C00002000100240E03E0008184910B5CB
:101B10008868C0F381021748012A0BD08A68164BE7
:101B2000C2F38102022A06D08A68C2F38102032A24
:101B300003D0002010BD184610BDCA6802F003048F
:101B4000CA68C2F30312521C032C02D0B0FBF2F09D
:101B500001E0B3FBF2F0CA68C968C2F30622504341
:101B6000C1F34161491C4900B0FBF1F010BD000018
:101B7000001002400024F40000366E012DE9F84305
:101B800004007AD02078F84DC00747D0A868E968EB
:101B900000F00C0001F003010C2802D0082817D037
:101BA00001E0032914D06068B0F5803F17D0B0F58C
:101BB000A02F286817D020F480302860286820F4EF
:101BC000802028606068E0B1FFF74CFC064614E016
:101BD0002868800322D560680028D2D01EE02868DB
:101BE00040F48030EDE740F480202860F7E700BF44
:101BF000FFF738FC801B642870D828688003F7D56D
:101C00000CE0FFF72FFC064605E000BFFFF72AFCBB
:101C1000801B6428F0D828688003F7D420788007D8
:101C20004CD5A868E96800F00C0001F003010C280D
:101C300002D004280DD001E002290AD0E068002873
:101C400028682BD040F480702860FFF70BFC064614
:101C500019E02868400502D5E068002891D068683E
:101C6000217C20F0FE4040EA01606860BF480068C7
:101C7000FFF716FC002800D120E072E1FFF7F2FB2D
:101C8000801B0228B8D828684005F7D56868217CF1
:101C900020F0FE4040EA016068600FE020F48070B0
:101CA0002860FFF7DFFB064605E000BFFFF7DAFB21
:101CB000801B0228A0D828684005F7D420780007A8
:101CC00029D560690028D5F8940013D040F00100B0
:101CD000C5F89400FFF7C6FB064606E090E000BF9B
:101CE000FFF7C0FB801B022886D8D5F89400800738
:101CF000F6D510E020F00100C5F89400FFF7B2FB24
:101D0000064604E0FFF7AEFB801B022878D8D5F822
:101D100094008007F6D42078400761D5A86D00268E
:101D2000C00008D4A86D40F08050A865A86D0126B9
:101D300000F0805000908E480168C90511D40168F8
:101D4000804641F480710160FFF78CFB074604E098
:101D5000FFF788FBC01B022852D8D8F80000C00546
:101D6000F6D5A068012815D00528D5F8900016D022
:101D700020F00100C5F89000D5F8900020F0040094
:101D8000C5F89000A06841F28838B8B1FFF76AFB47
:101D900007460EE0D5F8900040F00100F0E740F073
:101DA0000400C5F89000F5E7FFF75CFBC11B414557
:101DB00026D8D5F890008007F6D50CE0FFF752FB47
:101DC000074604E0FFF74EFBC11B414518D8D5F884
:101DD00090008007F6D41EB1A86D20F08050A86551
:101DE0002078800629D5A0690028D5F8980013D05E
:101DF00040F00100C5F89800FFF734FB064606E006
:101E000075E000BFFFF72EFB801B02286FD8D5F8C6
:101E100098008007F6D510E020F00100C5F8980082
:101E2000FFF720FB064604E0FFF71CFB801B02289F
:101E30005DD8D5F898008007F6D4E069F0B3A968BA
:101E4000C1F3810103295DD00228286820F0807049
:101E5000286003D0FFF706FB04464BE0FFF702FBC8
:101E6000064604E0FFF7FEFA801B02283FD82868E8
:101E70008001F7D4F4E908016FF00F0202EB0111C1
:101E80000843218A5204490802EB4151A26841EA01
:101E900002210843217D4FF07E42490802EB416157
:101EA0000843217B40EAC160E968324A1140084397
:101EB000E860286840F08070286000E05EE0E86834
:101EC00040F08070E860FFF7CDFA044605E000BFFF
:101ED000FFF7C8FA001B022809D828688001F7D547
:101EE0004CE000BFFFF7BEFA001B022802D9032016
:101EF000BDE8F88328688001F4D4E8681E490840EA
:101F0000E8603BE00128F3D0E868226A00F00301B2
:101F1000914226D1616A00F0F00209011039914224
:101F20001FD1A26A00F4FE41B1EB022F19D194F83F
:101F30002C2000F07841B1EBC26F12D1218E00F459
:101F4000C00249084905A1F50011914209D194F850
:101F5000341000F0C06049084906A1F100718142C7
:101F60000CD00120C4E70000001002404000002017
:101F7000007000400C809F01FCFFEEFE0020B7E7E0
:101F800010B5401EB0F1807F01D3012010BD4FF08D
:101F9000E02460610F21601701F02FFF0020A06195
:101FA00007202061002010BD704770477047000077
:101FB00030B590F83C20012A42D0012280F83C2024
:101FC000CA688B6822F440721A434B6822F480621C
:101FD0001A430B6822F400621A430B6922F4805200
:101FE0001A434B6922F400521A430B6B22F48042CD
:101FF0001A430B8B22F4702242EA0342CB6922F08F
:1020000080521A430F4D03680024AB4202D00E4D9C
:10201000AB4210D10D8D22F4700242EA05520D6AD6
:1020200022F080722A434D6A22F000722A43C96A64
:1020300022F000520A435A6480F83C40002030BD30
:10204000022030BD002C0140003401407047704731
:1020500070470000F0B590F83C20012A3AD00125E5
:1020600080F83C50022280F83D2003685A689C6842
:10207000194E1A4FB34201D0BB4204D122F4700C66
:102080004A6842EA0C02DFF858C002EA0C02D1F8B2
:1020900000C04CEA020CC3F804C00268B2420DD082
:1020A000B2F1804F0AD00F4B9A4207D00E4B9A42A2
:1020B00004D0BA4202D00D4B9A4204D1896824F070
:1020C00080031943916080F83D50002180F83C1056
:1020D0000846F0BD0220F0BD002C01400034014054
:1020E0008FFFFFFD00040040000800400040014059
:1020F000704710B5040003D094F83D0010B107E01C
:10210000012010BD002084F83C00204600F022F899
:10211000022084F83D00211D206801F09BF8012079
:1021200084F8480084F83E0084F83F0084F84000BA
:1021300084F8410084F8420084F8430084F84400A5
:1021400084F8450084F8460084F8470084F83D0090
:10215000002010BD08B5154A0168154891420ED1FE
:10216000016E41F400610166006E002200F400601F
:10217000009011461B20FFF7DBF91B2010E0B1F1A6
:10218000804F11D1816D41F001018165806D002288
:1021900000F00100009011461C20FFF7C9F91C2037
:1021A000BDE80840FFF7B6B908BD0000002C0140AB
:1021B0000010024090F83D10012901D00120704725
:1021C000022180F83D1000680F4988420ED0B0F11E
:1021D000804F0BD00D49884208D00D49884205D068
:1021E0000C49884202D00C49884207D181680B4AC9
:1021F0001140062906D0B1F5803F03D0016841F0B7
:102200000101016000207047002C014000040040E3
:102210000008004000340140004001400700010078
:1022200070B5044690F83C000025012814D0012622
:1022300084F83C60022084F83D0022689068364BA8
:10224000184020F47F409060086870282ED010DC81
:1022500010F00F0F03D021E04FF0020070BD4FEAE5
:102260002012072A1AD2DFE802F0525252524A389C
:1022700040002A4BC21A984249D009DCB0F5805F71
:102280000DD0B0F5005F1CD0B0F1101F06D13EE0BC
:10229000102A3CD0202A3AD0502A38D0012584F880
:1022A0003D60002084F83C00284670BDCB68D1E931
:1022B0000121206801F02CF82068816841F0770145
:1022C00009E0CB68D1E90121206801F021F82068FC
:1022D000816841F480418160E1E7CA68496820680B
:1022E00001F0C0F95021206806E0CA6849682068FA
:1022F00001F0C9F96021206801F014F8CFE7CA683D
:102300004968206801F0AEF940212068F4E72268AE
:1023100001461046F0E7000088FFCEFF20001000C5
:1023200070472DE9F04104460068C66805694FF022
:102330000007A90713D5B10711D5F91E01610120C6
:102340002077206880698007204602D0FFF7E8FFE9
:1023500004E000F0F3F8204600F0B5F927776807AD
:1023600016D5700714D521686FF0040008610220AB
:1023700020772068806910F4407F204602D0FFF764
:10238000CFFF04E000F0DAF8204600F09CF9277750
:10239000280715D5300713D521686FF008000861AC
:1023A000042020772068C0698007204602D0FFF70C
:1023B000B7FF04E000F0C2F8204600F084F9277768
:1023C000E80616D5F00614D521686FF010000861F4
:1023D000082020772068C06910F4407F204602D092
:1023E000FFF79EFF04E000F0A9F8204600F06BF92B
:1023F0002777E80708D0F00706D021686FF00100C2
:102400000861204600F060F9280601D4A80408D528
:10241000300606D521686FF4025008612046FFF7A8
:10242000C4FDE80508D5300606D521686FF4807034
:1024300008612046FFF7B8FD680608D5700606D586
:1024400021686FF040000861204600F03EF9A806C0
:1024500008D5B00606D521686FF020000861204637
:10246000FFF7A4FDE80208D5F00206D521686FF455
:10247000801008612046FFF7EAFDA80208D5B002E7
:1024800006D521686FF4001008612046FFF7DEFDD5
:10249000680208D5700206D521686FF480000861D3
:1024A0002046FFF7D5FD28020AD5300208D521685D
:1024B0006FF4000008612046BDE8F041FFF718BE48
:1024C000BDE8F08130B587B0044614216846FDF7B9
:1024D0006AFF2468164D0023164801220221AC42EF
:1024E0000FD1C46C44F00404C464C06C0092CDE904
:1024F000011300F00400CDE90410039369460E486F
:1025000012E0B4F1804F11D1C46C44F00104C464F2
:10251000C06C0092CDE9011300F00100CDE9042068
:10252000694603934FF09040FEF766FE07B030BD5A
:10253000002C01400010024000080048704770B5B0
:10254000044690F83C0000260D4601280BD00120DF
:1025500084F83C000C2A4AD007DC82B1042A20D03F
:10256000082A06D131E0022070BD102A53D0142A67
:1025700063D00126002084F83C00304670BD2068FE
:1025800000F0DAFE2068816941F00801816120686D
:10259000816921F004018161206881692A69114300
:1025A00011E0206800F016FF2068816941F40061A5
:1025B00081612068816921F480618161206881697D
:1025C0002A6941EA02218161D4E7206800F04AFFCC
:1025D0002068C16941F00801C1612068C16921F02A
:1025E0000401C1612068C1692A69114311E02068B2
:1025F00000F080FF2068C16941F40061C16120687A
:10260000C16921F48061C1612068C1692A6941EA18
:102610000221C161AEE7206800F0B4FF2068016DBF
:1026200041F0080101652068016D21F00401016598
:102630002068016D2A69114311E0206800F0DAFF7B
:102640002068016D41F4006101652068016D21F48D
:10265000806101652068016D2A6941EA02210165F6
:1026600088E710B5040003D094F83D0010B107E0EE
:10267000012010BD002084F83C00204600F022F824
:10268000022084F83D00211D206800F0E3FD0120B8
:1026900084F8480084F83E0084F83F0084F8400045
:1026A00084F8410084F8420084F8430084F8440030
:1026B00084F8450084F8460084F8470084F83D001B
:1026C000002010BD704770477047704790F8841025
:1026D000012918D0012180F884102421C0F8881025
:1026E00001680A680B6823F001030B6022F00051B7
:1026F00000224266036819602021C0F8881080F823
:10270000842010467047022070477047704770B5AC
:10271000044690F8840001281DD0012084F884002C
:102720002420C4F8880020680568026822F00102AD
:1027300002602068826822F060620A43826020465C
:1027400000F0B4FF206805602020C4F88800002055
:1027500084F8840070BD022070BD70B5044690F806
:10276000840001281DD0012084F884002420C4F8AE
:10277000880020680568026822F001020260206873
:10278000826822F060420A438260204600F08EFF99
:10279000206805602020C4F88800002084F88400A8
:1027A00070BD022070BD7047704770472DE9F04141
:1027B00003680446D86919689A6840F60F052842EC
:1027C0004FF000054FF002060AD187067ED501F0D2
:1027D000200702F0805C57EA0C0777D0616F42E176
:1027E000B64FDFF8DCC2174001EA0C0C57EA0C0CBC
:1027F0006CD05FEAC07C0CD05FEAC15C09D54FF0B9
:10280000010CC3F820C0D4F8903043F00103C4F8A1
:102810009030830709D5D30707D023681E62D4F808
:10282000903043F00403C4F8903043070AD5D3072F
:1028300008D0266804233362D4F8903043F00203B2
:10284000C4F8903003070CD501F020033B4308D0B7
:10285000266808233362D4F8903043F00803C4F8A4
:10286000903003050BD54B0109D526684FF4006362
:102870003362D4F8903043F02003C4F89030D4F899
:102880009030002B3DD0800609D501F0200002F0E9
:102890008051084303D0616F09B120468847D4F8BE
:1028A000900021688968490602D410F0280F2AD0C8
:1028B000204601F081F82068806840061ED5206817
:1028C000083050E8001F21F0400100E021E040E81E
:1028D0000012002AF3D1D4F8800078B179498163DD
:1028E000D4F88000FEF713FB00280AD0D4F880004B
:1028F000816B00E02046BDE8F04108472046FFF725
:1029000054FFBDE8F0812046FFF74FFFC4F8905018
:10291000F7E7D4F86CC02027BCF1010F7ED15FEA45
:10292000C06C7BD55FEAC16C78D510201862206836
:102930008068400651D5D4F880100A6850680004B9
:10294000000C3ED0B4F85C3083423AD9A4F85E0063
:102950000868006880062CD4216851E8000F20F434
:10296000807041E80002002AF6D12068083050E863
:10297000001F21F0010140E80012002AF5D1206873
:10298000083050E8001F21F0400140E80012002A02
:10299000F5D1C4F88C70E566216851E8000F20F08D
:1029A000100041E80002002AF6D1D4F88000FEF7BA
:1029B00079FA2667B4F85C00B4F85E10401A81B268
:1029C00007E0B4F85C1081429BD11068800698D56E
:1029D00026672046FFF799FE93E7B4F85C00B4F849
:1029E0005E10401A81B2B4F85E00002889D0002938
:1029F00087D0226852E8000F20F4907042E800036C
:102A0000002BF6D12D4BDB432068083050E8002F17
:102A10001A4040E8002CBCF1000F00E00EE0F3D1BA
:102A2000C4F88C70E5666567206850E8002F22F0D6
:102A3000100240E80023002BF6D1C9E7C60209D5F1
:102A4000560207D54FF4801018622046BDE8F041C9
:102A5000FFF7AABE03060AD501F0800302F40002C4
:102A6000134304D0A16F00297FF444AF49E7420625
:102A700011D54A060FD52046016851E8002F22F0F3
:102A8000400241E80023002BF6D1C0F8887085672A
:102A900000F04CF935E7020206D54A0004D520467D
:102AA000BDE8F041FFF77FBEC00195D5002993DA5C
:102AB0002046BDE8F041FFF729BE000001000010EC
:102AC000200100046538000810B5040003D0D4F8D4
:102AD000880010B107E0012010BD002084F88400B8
:102AE000204600F027F82420C4F8880020680168F8
:102AF00021F001010160A06A10B1204600F0F8FD4C
:102B0000204600F09BFF0128E6D02068416821F4B0
:102B1000904141602068816821F02A01816020682D
:102B2000016841F0010101602046BDE8104000F05D
:102B300043BE0000F0B597B00546142111A8FDF77B
:102B400032FC44216846FDF72EFC3B492868884248
:102B50006FD104200024009003946846FEF780FDA6
:102B600008B1FDF7CDFD3548816D41F480218165C7
:102B7000816D01F480211691C16C41F00201C164A4
:102B8000C16C01F002011691C16C41F00401C164F5
:102B9000C06C022600F00400169007274FF48060F6
:102BA000CDE91264CDE91447119011A92448FEF72C
:102BB00023FBB002CDE91264CDE91447119011A9AD
:102BC0002048FEF719FB214E1F48802730601C204B
:102BD000C6E90104C6E903477461B461F461304693
:102BE0003462FEF72DFA08B1FDF78AFDC5F8806062
:102BF000B562164E14486036143030601D20706087
:102C000006F10801102081E891007461B461F4615B
:102C100030463462FEF714FA08B1FDF771FDEE6735
:102C2000002211462720B562FEF782FC2720FEF71E
:102C300071FC17B0F0BD00000048004000100240D9
:102C400000040048000800481C0002405802002010
:102C500030B4D0F88C30202B02D0022030BC70472A
:102C6000A9B1A2B10023C3660A4C0368A3420BD0EA
:102C70005B681B0208D5046854E8003F43F080639A
:102C800044E80035002DF6D130BC01F011B8012028
:102C9000E4E70000008000407047704770B50446CC
:102CA000D0F88800202801D0022070BD39B332B39B
:102CB0002165A4F85420A4F856200021C4F89010EF
:102CC0002120C4F88800E06FD8B1154BC362E36FD0
:102CD00014481863E36F14485863E06F1346816328
:102CE0002068E56F00F128022846216DFEF708FAFA
:102CF00038B11020C4F890002020C4F888000120CA
:102D000070BD2168402008622068083050E8001F2C
:102D100041F0800140E80012002AF5D1002070BD8A
:102D20006B390008AD3900087538000870477047E6
:102D3000FEE700EB8100006E00F0F840704780680D
:102D4000C0F3C00070478068C0F38000704780689F
:102D5000C0F380007047042303EAD15310B5184430
:102D60004369C1F3045107248C40A3438A401343B1
:102D7000436110BD00EB8100016E21F00041114361
:102D8000016670471348FFF715FA124900200968D9
:102D90004862FEF767FB10490522086114310F48AD
:102DA000FFF756FF0E4D4FF400544FF090464FF48E
:102DB000967721462846FEF743FB0028F9D12021CB
:102DC0003046FEF742FB01F059F83846FEF7DEF9CF
:102DD000EFE700002C01002000000020C4010020CB
:102DE0000008004830B58BB00024089409942021D5
:102DF00068460A94FDF7D7FA28484FF0A041042509
:102E000001604FF44031C0E9011485610121C460C3
:102E1000C0E90441047741770322026280F824402C
:102E2000C462046380F83810C46380F84040FDF742
:102E3000E7FE08B1FDF764FC08A918480894FDF7FF
:102E400061FC08B1FDF75CFC154800900620CDE957
:102E500001047F200594CDE9030569460F48FDF77D
:102E6000BDFC08B1FDF74CFC0E4800900C20019011
:102E700069460A48FDF7B2FC08B1FDF741FC0A4873
:102E800000901220019069460448FDF7A7FC002835
:102E900001D0FDF735FC0BB030BD00006000002014
:102EA000001060320040C03A0080F03E154808B57E
:102EB000816C41F004018164816C01F00401009196
:102EC000816C41F001018164806C002200F00100FE
:102ED000009011460B20FEF72BFB0B20FEF71AFB90
:102EE000002211460C20FEF723FB0C20FEF712FBFC
:102EF000002211460D20FEF71BFBBDE808400D2007
:102F0000FEF708BB0010024030B587B014216846B8
:102F1000FDF749FA1D48C16C41F00401C164C16C60
:102F200001F004010591C16C41F02001C164C16C44
:102F300001F020010591C16C41F00101C164C16C37
:102F400001F001010591C16C41F00201C164C06C46
:102F50000F4D00F002000590002204212846FEF7E4
:102F60007CFA0420009001200024CDE90104694688
:102F700028460394FEF740F90820CDE9000469468D
:102F800028460294FEF738F907B030BD0010024021
:102F900000080048094A126802600A6842600C2270
:102FA00042614A8902614A6882600A89C2608989ED
:102FB00081614FF40041C161FFF786BD2C00002004
:102FC00010B59CB0002419941A9417941894149472
:102FD00015941C210DA81694FDF7E5F934216846D7
:102FE000FDF7E1F92D482C49016044F26721C0E961
:102FF000011442F21071C0E9031444618461FFF7C7
:1030000078F808B1FDF77CFB4FF48050179017A9B2
:103010002248FFF705F908B1FDF772FB1F48FFF7DB
:1030200020FB08B1FDF76CFB1494159414A91B4800
:103030001694FFF70FF808B1FDF762FB60200D90C2
:1030400041F28830CDE90E041094119412940022BC
:103050000DA912481394FFF772FA08B1FDF750FB5F
:1030600000944FF40050CDE9044003940003CDE9EF
:10307000084001940294069407940A940B946946BC
:1030800006480C94FEF794FF08B1FDF739FB03489E
:10309000FFF718FA1CB010BD002C01402C010020D5
:1030A00010B58EB000240794089409940A940B94E8
:1030B0000C941C2168460D94FDF775F91D484FF0DE
:1030C00080410160A921C0E901141B49C0E9031432
:1030D0008461FFF70EF808B1FDF712FB4FF4805042
:1030E000079007A91348FFF79BF808B1FDF708FB05
:1030F0001048FFF7B6FA08B1FDF702FB0B940BA9D5
:103100000C480D94FEF7A6FF08B1FDF7F9FA602010
:1031100000900A48CDE9010400226946054804945C
:10312000FFF70DFA08B1FDF7EBFA0248FFF7CAF90D
:103130000EB010BD7801002040420F0020A1070012
:10314000184810B5164901604FF4E1314160002183
:1031500081600C22C160C0E904128161C161016219
:1031600041628162FFF7B0FC08B1FDF7C9FA0021A6
:103170000C48FFF7F2FA08B1FDF7C2FA002109483E
:10318000FFF7C5FA08B1FDF7BBFA0648FFF79EFA4C
:10319000002803D0BDE81040FDF7B2BA10BD000012
:1031A00000480040C4010020FEE7FEE7704770477A
:1031B000FEF75EB900B593B038216846FDF7F3F825
:1031C00014210EA8FDF7EFF80020FEF7E3F9022026
:1031D000C1010391402104910421CDE9080100902F
:1031E0005521CDE90A1007900C900D906846FEF726
:1031F000C5FC08B172B6FEE70F200E9003200F90B9
:10320000002010901190129004210EA8FEF76CFB84
:10321000002801D072B6FEE713B000BD0248016875
:1032200041F470010160704788ED00E010B503487B
:10323000FFF777F8BDE8104000F01DBE2C0100201C
:1032400010B50348FFF76DF8BDE8104000F014BE5C
:10325000780100202DE9F0430268264B264D274EC9
:10326000274C4FF08049984207D0484505D0A842E6
:1032700003D0B04201D0A04203D122F070074A68C7
:103280003A43204FDFF880C0DFF8808098420DD0AD
:1032900048450BD0A84209D0B04207D0A04205D083
:1032A000B84203D0604501D0404503D122F44075B7
:1032B000CA682A434D6922F080022A4302608A6864
:1032C000C2620A688262984207D0A04205D0B84222
:1032D00003D0604501D0404501D109690163012156
:1032E00041610169C90703D0016921F00101016150
:1032F000BDE8F083002C01400004004000080040BD
:1033000000340140004001400044014000480140B9
:1033100010B5846842EA032224F47F440A4322431E
:10332000826010BD8268034B1A400A4342F00701D5
:10333000816070478FFFCFFF2DE9F043056A026A75
:1033400022F001020262436882691C4C25F00205EA
:1033500022400C6822F0030214438A68194E2A4363
:10336000174D194FDFF864C0DFF86490A84207D00A
:10337000B04205D0B84203D0604501D0484506D1DF
:1033800022F00808CA6842EA080222F00402A842B1
:1033900007D0B04205D0B84203D0604501D04845BF
:1033A00005D14D6923F440731D438B692B43436062
:1033B0008461496841630262BDE8F0838FFFFEFFCC
:1033C000002C014000340140004001400044014015
:1033D00000480140F0B5056A026A22F0100202625C
:1033E00042688369194C1B4E23400C6823F44073D8
:1033F00043EA042425F020038D6843EA0513144DA5
:10340000A84201D0B04206D1CF6823F0800343EA3E
:10341000071323F04003A8420AD0B04208D00E4D53
:10342000A84205D00D4DA84202D00D4DA84207D1AB
:103430004D6922F4406242EA85028D6942EA8502C2
:1034400042608461496881630362F0BDFF8FFFFEC3
:10345000002C014000340140004001400044014084
:1034600000480140F0B5056A026A22F480720262E7
:103470004368C269194C1B4E22400C6822F00302BB
:10348000144325F400728D6842EA0522144DA842C7
:1034900001D0B04206D1CF6822F4006242EA07228E
:1034A00022F48062A8420AD0B04208D00E4DA84251
:1034B00005D00E4DA84202D00D4DA84207D14D694E
:1034C00023F4405343EA05138D6943EA051343602F
:1034D000C4614968C1630262F0BD00008FFFFEFF56
:1034E000002C0140003401400040014000440140F4
:1034F00000480140F0B5056A026A22F48052026277
:103500004268C369194C1B4E23400C6823F4407376
:1035100043EA042425F400538D6843EA0533144D2F
:10352000A84201D0B04206D1CF6823F4004343EA59
:10353000073323F48043A8420AD0B04208D00E4D8E
:10354000A84205D00D4DA84202D00D4DA84207D18A
:103550004D6922F4404242EA85128D6942EA8512A1
:103560004260C461496801640362F0BDFF8FFFFEE1
:10357000002C014000340140004001400044014063
:103580000048014030B5056A026A22F480320262C6
:103590004268036D114C23400C681C4325F4003332
:1035A0000D8943EA05430E4DA8420BD00D4DA842AC
:1035B00008D00D4DA84205D00C4DA84202D00C4DAC
:1035C000A84204D14D6922F4803242EA05224260C9
:1035D000046549688164036230BD00008FFFFEFF0F
:1035E000002C0140003401400040014000440140F3
:1035F0000048014030B5046A026A22F48012026277
:103600004268036D114D24F400142B400D6843EA09
:1036100005230D8944EA05540D4DA8420BD00D4DEC
:10362000A84208D00C4DA84205D00C4DA84202D0AB
:103630000B4DA84204D14D6922F4802242EA852232
:10364000426003654968C164046230BDFF8FFFFEBC
:10365000002C014000340140004001400044014082
:103660000048014010B5036A046A24F001040462B2
:10367000846924F0F00444EA021423F00A020A43A5
:103680008461026210BD10B5036A046A24F010045C
:103690000462846923F0A00324F4704444EA0232F3
:1036A00043EA01118261016210BD000030B5416E34
:1036B000B9B1026891689268C1F342610B4B520F35
:1036C0009C5CE50003F10804A25CB5FBF2F2A0F8F3
:1036D0006A205A5C615CD200B2FBF1F1A0F868107C
:1036E00030BD0121A0F86A10F8E70000C03E0008D4
:1036F00090F82810090706D501684A68836B22F400
:1037000000421A434A6090F82810C90706D00168A1
:103710004A68C36A22F400321A434A6090F82810BB
:10372000890706D501684A68036B22F480321A4380
:103730004A6090F82810490706D501684A68436B2B
:1037400022F480221A434A6090F82810C90606D550
:1037500001688A68C36B22F480521A438A6090F829
:103760002810890606D501688A68036C22F4005285
:103770001A438A6090F82810490611D501684A68F2
:10378000436C22F480121A434A60416CB1F5801FE9
:1037900006D101684A68836C22F4C0021A434A6069
:1037A00090F82810090606D501684A68C06C22F412
:1037B000002202434A6070472DE9F8430026044680
:1037C000C0F89060FDF74EFE8046206800684FF01C
:1037D000200500076FF07E4713D5434600222904D9
:1037E0002046009700F0B8FA58B1216851E8000F60
:1037F00020F0800041E80002002AF6D1C4F8885089
:1038000021E020680068400722D5434600224FF49B
:1038100080012046009700F09FFAC8B1216851E866
:10382000000F20F4907041E80002002AF6D12068D1
:10383000083050E8001F21F0010140E80012002A82
:10384000F5D1C4F88C5084F884600320BDE8F88377
:10385000C4F88850C4F88C5044F86C6F66602676C3
:103860000020F3E710B5806A0021A0F85E10FEF793
:103870009CFF10BD70B5846AD4F88800D4F88C50D1
:10388000216889684FF00006090606D5212804D171
:10389000A4F85660204600F0B9F820688068400619
:1038A00006D5222D04D1A4F85E60204600F084F8ED
:1038B000D4F8900040F01000C4F890002046FEF7C5
:1038C00074FF70BD10B50146806A096809684FF041
:1038D000000289062DD4A0F85E20036853E8001F7B
:1038E00021F4807143E80014002CF6D101680831FE
:1038F00051E8003F23F0010341E80034002CF5D1EA
:103900000168083151E8003F23F0400341E80034EA
:10391000002CF5D12021C0F88C10C16E012908D1EE
:10392000016851E8003F23F0100341E80034002C07
:10393000F6D10267C16E012902D0FFF7ADF910BDC3
:10394000B0F85C10FEF7E1FE10BD10B5806A0121F1
:103950000167C16E012902D0FFF79FF910BDB0F8D1
:103960005C104908FEF7D1FE10BD10B50146806A13
:1039700009680968890616D40021A0F85610016864
:10398000083151E8002F22F0800241E80023002B8B
:10399000F5D1026852E8001F41F0400142E80013EF
:1039A000002BF6D110BDFFF7C1F910BD10B5806A2C
:1039B000FFF7BDF910BD000010B5026852E8001F06
:1039C00021F4907142E80013002BF6D10E4B0268EF
:1039D000083252E8001F194042E80014002CF6D1CA
:1039E000C16E012908D1016851E8002F22F01002B0
:1039F00041E80023002BF6D12021C0F88C100021D3
:103A0000C166416710BD0000FEFFFFEF026852E88B
:103A1000001F21F0C00142E80013002BF6D101681D
:103A2000083151E8002F22F4000241E80023002B66
:103A3000F5D12021C0F88810704700002DE9F04131
:103A40000446016880682269E369104362690025C1
:103A50001A431043DFF82CC20A688B4B1A4002430A
:103A60000A6020684168E26821F4405111434160D6
:103A70002168A069614501D0226A10438A68834B9E
:103A80001A4002438A602068C16A626A21F00F010D
:103A90001143C1627E4923687E488B420DD1D0F824
:103AA000880010F0030006D0012855D0022842D02B
:103AB00003283FD152E001203DE077498B420BD1F2
:103AC000D0F8880010F00C0035D0042833D0082836
:103AD00040D00C282ED141E070498B420BD1D0F858
:103AE000880010F0300026D0102835D0202831D0A2
:103AF00030281FD132E06A498B420BD1D0F88800C0
:103B000010F0C00017D0402826D0802822D0C0282E
:103B100010D123E063450DD1D0F8880010F4406047
:103B200009D0B0F5806F17D0B0F5006F12D0B0F5A6
:103B3000406F13D010205B495B4F00264FF40042CA
:103B400063453BD160B1022813D004280BD008286C
:103B500072D10DE00220EEE70420ECE70820EAE74E
:103B6000FDF7B0FF01E0FDF7D1FF010001D17CE0DE
:103B70001146606A37F810206768B1FBF2F007EB76
:103B80004703834270D8B0EB073F6DD80023084647
:103B90001946FCF791FB090241EA1061020278081C
:103BA000101871413A460023FCF786FB3F4AA0F506
:103BB0004071914258D82168C86056E0E3694FF6D9
:103BC000EF7893422CD109284ED2DFE800F00508A7
:103BD000114D0D4D4D4D1000FDF774FF01E0FDF747
:103BE00083FF010004D140E0FDF790FFF9E71146A3
:103BF000606A37F81000B1FBF0F04100606801EB3B
:103C00005001B1FBF0F0A0F1100141452CD84FF666
:103C1000F0710140C0F3420001432068C16024E01C
:103C2000092821D2DFE800F0050912200E2020200B
:103C30001100FDF747FF02E016E0FDF755FF010018
:103C400004D112E0FDF762FFF9E71146606A37F828
:103C50001000B1FBF0F1606801EB5001B1FBF0F036
:103C6000A0F1100141450AD901250120A4F86A00FC
:103C700024F8680F2846E6602661BDE8F08180B22E
:103C800099E7000000800040F369FFCFFFF4FF11C7
:103C9000003801400010024000440040004800404D
:103CA000004C00400024F400A83E0008FFFC0F0078
:103CB00070B58165A0F85C2000210446C0F8901022
:103CC0002220C4F88C00D4F88000F0B11F4BC362EE
:103CD000D4F880301E481863D4F880301D485863EB
:103CE000D4F8800013468163A56D21682A462431EB
:103CF000D4F88000FDF704FA38B11020C4F8900021
:103D00002020C4F88C00012070BD206940B12168DA
:103D100051E8000F40F4807041E80002002AF6D11B
:103D20002068083050E8001F41F0010140E800120F
:103D3000002AF5D12068083050E8001F41F040010A
:103D400040E80012002AF5D1002070BDC5380008F7
:103D50004B390008753800082DE9F0479946174699
:103D60000D4604464FF00008089E33E0701C31D029
:103D7000FDF778FBA0EB0900B04218D8BEB120686F
:103D80000168490726D5802D24D0402D22D0C16955
:103D9000C94309070DD4082505622046FFF70CFE2C
:103DA000C4F8905084F884800120BDE8F087032097
:103DB000FBE7C069C04300050CD421684FF40060E4
:103DC00008622046FFF7F8FD2020C4F8900084F830
:103DD0008480ECE72068C06935EA000004D0002048
:103DE000B842C3D00020E0E70120F9E70148FEF720
:103DF000DDBC0000C4010020FEE70907090E002811
:103E000004DB00F1E02080F80014704700F00F00A0
:103E100000F1E02080F8141D70470000FDF730FB32
:103E2000FFF7C8F9FFF770F8FFF740F8FFF738F928
:103E3000FFF7C6F8FEF7D6FFFFF782F90020FCF780
:103E400035FB01210020FCF767FB09484FF4E13105
:103E50000160002141600181418181810146002092
:103E6000FCF706FB08B172B6FEE7FEF78BFFFEE734
:103E7000500000207047704770470000042202493C
:103E80000248FEF70BBF000019000020C40100200B
:103E90004FF04070E1EE100A70470000280020004B
:103EA000002000000D0000060100020004000600D2
:103EB00008000A000C0010002000400080000001F3
:103EC00001010103070100000804020408010101C7
:103ED00000000000000000000102030406070809BA
:103EE0000000000001020304083F00080000002059
:103EF0005000000014020008583F00085000002045
:103F0000C0090000300200080000000000000000AE
:103F100000000000000000000000000000000000A1
:103F20000001000000000000000000000000004848
:103F30000008004800800040B10500080F000000A4
:103F40000000000000000000100000000100000060
:083F5000000000000024F40051
:04000005080001D915
:00000001FF
